:020000040800F2
:1000000000400020216100084162000841620008B0
:100010004162000841620008416200084162000834
:100020004162000841620008416200086162000804
:100030004162000841620008416200084163000813
:100040004162000841620008416200084162000804
:1000500041620008416200084162000841620008F4
:10006000416200084162000841620008316F0008E7
:10007000616F0008916F0008C16F0008F16F000800
:100080002170000851700008817400084162000866
:1000900041620008416200084162000841620008B4
:1000A00041620008416200084162000841620008A4
:1000B0004162000841620008617600084162000860
:1000C0004162000841620008416200084162000884
:1000D000416200087178000841620008416200082E
:1000E0004162000841620008416200084162000864
:0400F0004162000861
:100100002DE9F04F734C8BB00025256006F080FD83
:1001100006F086F92946704806F07AFE2846C4F2B1
:1001200002004FF4007140F2823207F089FD284648
:1001300040F28232C4F202004FF4806107F080FD89
:100140002946664806F094FD07F07AFA28462021F1
:100150000322C4F20200DFF8A881DFF8A89100268C
:1001600041F2145707F06CFDC2F200075C48CCF274
:10017000164688F8005089F8005007F079FF00957E
:10018000FE604CF6CD46CBF6CC563E614FF4105691
:10019000CCF6F4167E614FF4F846CCF692067E62F9
:1001A0004FF4F846C4F692064E4B40224FF4987135
:1001B000BE624D4806F00CFB47484C4907F0E8FD8D
:1001C0004B484C4906F084FD4FF48060C4F20200B5
:1001D00040214FF4817207F033FD4FF48060C4F288
:1001E000020080214FF4817207F02AFD41F2FC2CBD
:1001F000C2F2000CBCF80830294603EB4302D208D7
:100200003B4807F005FB2A463948012107F000FB6F
:1002100040F64306384DDFF8F0B0C8F2214600231F
:10022000C4F202031B69DB0740F14981012389F80D
:10023000003041F2FC2EC2F2000EBEF80820002170
:1002400092082B4807F0E4FA41F2FC20C2F20000C9
:100250000121028907F0DCFA2B889900CA18920064
:1002600086FB02708218B2F50C6F38BF226802D389
:1002700017E02B889900CB189B0086FB0307D91742
:10028000FB18C1EB2317BB081C49134807F080FD7E
:100290004FF47A7006F0B4FA226801328B2F226094
:1002A000E7D941F2FC2CC2F2000CBCF80820012175
:1002B00022FA01F20E4807F0ABFA2B889900CA180F
:1002C000920086FB02E08218B2F5166F38BF2268F2
:1002D0001ED333E0F014002010130020C8120020B9
:1002E0001415002011820008C0130020C8880008DF
:1002F000FC120020BC1000200015002070890008AE
:10030000F414002044150020E08500082B88990093
:10031000CB189B0086FB0317D917FB18C1EB2317DB
:10032000BB088D498D4807F033FD4FF47A7006F015
:1003300067FA22680132952F2260E7D900210A4628
:10034000874807F065FA0023012289F8003088F811
:10035000002023604FF47A7006F052FA98F800708B
:100360002168012F2B885BF821007FF458AF03EB45
:1003700083039B0086FB032A53444FEA231AC0EBF6
:100380000A0303F1030E41F2FC4C33EA230328BFB6
:100390007346C2F2000CDCF800200593DDF814E08F
:1003A000830802F57A72A929CCF8002009934FEA54
:1003B0009A0C4FEAAE0340F2888041F2FC20C2F270
:1003C00000003946028906F093FC40F2F7239A4573
:1003D00098BF9A4613D82F88604807EB8707BF005D
:1003E00086FB0723DF193F11BB085E49226807F02F
:1003F000CFFC4FF47A7006F003FA5745EBD9584812
:100400000121002206F074FC41F2FC21C2F200013D
:100410000A8953480021920806F06AFC2F884F4849
:1004200007EB8707BF0086FB07C3DF193F11BB0837
:100430004D49226807F0ACFC4FF47A7006F0E0F901
:10044000B7F5347FEAD841F2FC20C2F20000002167
:10045000028906F04DFCA02F13D92F883F4807EBE7
:100460008707BF0086FB0713DF193F11BB083F4911
:10047000226807F08DFC4FF47A7006F0C1F9A02FC6
:10048000EBD800210A46364806F032FC334838499A
:1004900007F07EFC002741F2FC4EC2F2000E354808
:1004A00039462760CEF8007007F0FAFD002388F87F
:1004B0000070C4F202031B69DB073FF5B7AE99F881
:1004C0000030012B7FF446AFB3E60693CDF81CC095
:1004D000089200F0C3FA41F21451C2F20001086020
:1004E000504600F0BBFA089A0146224807F0E0FDAA
:1004F000864641F2F040C2F200000268069BDDF839
:100500001CC041F24650C2F20000018809980193D4
:10051000634641F2F64CC2F2000C00900291CDF815
:100520000CE00E48ACF800E0134907F031FC41F252
:10053000F64E41F2FC20C2F2000EC2F20000BEF8FC
:1005400000300289394602FB03F20548C2F3CF228C
:1005500007F05EF963E600BF9089000810130020E1
:10056000FC120020F08900080C8A0008388A000874
:10057000288A000814150020B08900080000000037
:1005800081F0004102E000BF83F0004330B54FEA44
:1005900041044FEA430594EA050F08BF90EA020FB1
:1005A0001FBF54EA000C55EA020C7FEA645C7FEA44
:1005B000655C00F0E2804FEA5454D4EB5555B8BF67
:1005C0006D420CDD2C4480EA020281EA030382EAD8
:1005D000000083EA010180EA020281EA0303362D6A
:1005E00088BF30BD11F0004F4FEA01314FF4801C3D
:1005F0004CEA113102D0404261EB410113F0004F4F
:100600004FEA03334CEA133302D0524263EB430305
:1006100094EA050F00F0A780A4F10104D5F1200EA3
:100620000DDB02FA0EFC22FA05F2801841F10001FE
:1006300003FA0EF2801843FA05F359410EE0A5F1D2
:1006400020050EF1200E012A03FA0EFC28BF4CF003
:10065000020C43FA05F3C01851EBE37101F00045B9
:1006600007D54FF0000EDCF1000C7EEB00006EEBC6
:100670000101B1F5801F1BD3B1F5001F0CD3490850
:100680005FEA30004FEA3C0C04F101044FEA4452A7
:1006900012F5800F80F09A80BCF1004F08BF5FEA2E
:1006A000500C50F1000041EB045141EA050130BD0E
:1006B0005FEA4C0C404141EB010111F4801FA4F1B1
:1006C0000104E9D191F0000F04BF01460020B1FA06
:1006D00081F308BF2033A3F10B03B3F120020CDA3E
:1006E0000C3208DD02F1140CC2F10C0201FA0CF01C
:1006F00021FA02F10CE002F11402D8BFC2F1200C81
:1007000001FA02F120FA0CFCDCBF41EA0C01904036
:10071000E41AA2BF01EB0451294330BD6FEA04047F
:100720001F3C1CDA0C340EDC04F11404C4F120026A
:1007300020FA04F001FA02F340EA030021FA04F37C
:1007400045EA030130BDC4F10C04C4F1200220FAD3
:1007500002F001FA04F340EA0300294630BD21FA11
:1007600004F0294630BD94F0000F83F4801306BFD7
:1007700081F480110134013D4EE77FEA645C18BFCB
:100780007FEA655C29D094EA050F08BF90EA020F62
:1007900005D054EA000C04BF1946104630BD91EA5A
:1007A000030F1EBF0021002030BD5FEA545C05D15D
:1007B0004000494128BF41F0004130BD14F580049C
:1007C0003CBF01F5801130BD01F0004545F0FE4110
:1007D00041F470014FF0000030BD7FEA645C1ABF45
:1007E000194610467FEA655C1CBF0B46024650EA7C
:1007F000013406BF52EA033591EA030F41F40021A8
:1008000030BD00BF90F0000F04BF0021704730B52D
:100810004FF4806404F132044FF000054FF0000102
:1008200050E700BF90F0000F04BF0021704730B5C3
:100830004FF4806404F1320410F0004548BF404298
:100840004FF000013EE700BF42004FEAE2014FEAED
:1008500031014FEA02701FBF12F07F4393F07F4FC8
:1008600081F06051704792F0000F14BF93F07F4FFA
:10087000704730B54FF4607401F0004521F000413D
:1008800020E700BF50EA010208BF704730B54FF0C3
:1008900000050AE050EA010208BF704730B511F0C8
:1008A000004502D5404261EB41014FF4806404F100
:1008B00032045FEA915C3FF4DCAE4FF003025FEA82
:1008C000DC0C18BF03325FEADC0C18BF033202EB0A
:1008D000DC02C2F1200300FA03FC20FA02F001FA64
:1008E00003FE40EA0E0021FA02F11444C1E600BF03
:1008F00080F0004002E000BF81F0004142001FBFD5
:100900005FEA410392EA030F7FEA226C7FEA236CDD
:100910006AD04FEA1262D2EB1363C1BFD2184140D2
:1009200048404140B8BF5B42192B88BF704710F068
:10093000004F40F4000020F07F4018BF404211F00B
:10094000004F41F4000121F07F4118BF494292EA73
:10095000030F3FD0A2F1010241FA03FC10EB0C009F
:10096000C3F1200301FA03F100F0004302D549422C
:1009700060EB4000B0F5000F13D3B0F1807F06D3D9
:1009800040084FEA310102F10102FE2A51D2B1F1D1
:10099000004F40EBC25008BF20F0010040EA0300C6
:1009A0007047490040EB000010F4000FA2F1010273
:1009B000EDD1B0FA80FCACF1080CB2EB0C0200FAFD
:1009C0000CF0AABF00EBC25052421843BCBFD0404B
:1009D0001843704792F0000F81F4000106BF80F4C5
:1009E00000000132013BB5E74FEA41037FEA226C88
:1009F00018BF7FEA236C21D092EA030F04D092F053
:100A0000000F08BF0846704790EA010F1CBF002086
:100A1000704712F07F4F04D1400028BF40F00040E3
:100A2000704712F100723CBF00F50000704700F003
:100A3000004343F0FE4040F4000070477FEA22622A
:100A400016BF08467FEA23630146420206BF5FEAFB
:100A5000412390EA010F40F4800070474FF00003FB
:100A600004E000BF10F0004348BF40425FEA000CC2
:100A700008BF704743F0964301464FF000001CE06A
:100A800050EA010208BF70474FF000030AE000BFC0
:100A900050EA010208BF704711F0004302D54042FE
:100AA00061EB41015FEA010C02BF84460146002070
:100AB00043F0B64308BFA3F18053A3F50003BCFA8B
:100AC0008CF2083AA3EBC25310DB01FA02FC634438
:100AD00000FA02FCC2F12002BCF1004F20FA02F23F
:100AE00043EB020008BF20F00100704702F1200232
:100AF00001FA02FCC2F1200250EA4C0021FA02F293
:100B000043EB020008BF20EADC70704700000000E1
:100B10004FF0FF0C1CEAD0521EBF1CEAD15392EAE0
:100B20000C0F93EA0C0F6FD01A4480EA010C4002BC
:100B300018BF5FEA41211ED04FF0006343EA501016
:100B400043EA5111A0FB01310CF00040B1F5000F58
:100B50003EBF490041EAD3715B0040EA010062F107
:100B60007F02FD2A1DD8B3F1004F40EBC25008BFF1
:100B700020F00100704790F0000F0CF0004C08BF0F
:100B800049024CEA502040EA51207F3AC2BFD2F1DC
:100B9000FF0340EAC250704740F400004FF00003EA
:100BA000013A5DDC12F1190FDCBF00F00040704724
:100BB000C2F10002410021FA02F1C2F1200200FA62
:100BC00002FC5FEA310040F1000053EA4C0308BF29
:100BD00020EADC70704792F0000F00F0004C02BF7A
:100BE000400010F4000F013AF9D040EA0C0093F0F5
:100BF000000F01F0004C02BF490011F4000F013B4F
:100C0000F9D041EA0C018FE70CEAD15392EA0C0FBC
:100C100018BF93EA0C0F0AD030F0004C18BF31F027
:100C2000004CD8D180EA010000F00040704790F0FD
:100C3000000F17BF90F0004F084691F0000F91F0A1
:100C4000004F14D092EA0C0F01D142020FD193EA67
:100C50000C0F03D14B0218BF084608D180EA0100EF
:100C600000F0004040F0FE4040F40000704740F0CB
:100C7000FE4040F4400070474FF0FF0C1CEAD05299
:100C80001EBF1CEAD15392EA0C0F93EA0C0F69D0F5
:100C9000A2EB030280EA010C49024FEA402037D060
:100CA0004FF0805343EA111143EA10130CF0004057
:100CB0008B4238BF5B0042F17D024FF4000C8B4247
:100CC00024BF5B1A40EA0C00B3EB510F24BFA3EB27
:100CD000510340EA5C00B3EB910F24BFA3EB9103F7
:100CE00040EA9C00B3EBD10F24BFA3EBD10340EA51
:100CF000DC001B0118BF5FEA1C1CE0D1FD2A3FF697
:100D000050AF8B4240EBC25008BF20F0010070474B
:100D10000CF0004C4CEA50207F32C2BFD2F1FF03EE
:100D200040EAC250704740F400004FF00003013A1F
:100D300037E792F0000F00F0004C02BF400010F4C3
:100D4000000F013AF9D040EA0C0093F0000F01F0D7
:100D5000004C02BF490011F4000F013BF9D041EAF9
:100D60000C0195E70CEAD15392EA0C0F08D142022C
:100D70007FF47DAF93EA0C0F7FF470AF084676E7FF
:100D800093EA0C0F04D14B023FF44CAF08466EE7D8
:100D900030F0004C18BF31F0004CCAD130F00042A6
:100DA0007FF45CAF31F000437FF43CAF5FE700BFFE
:100DB0004FF0FF3C06E000BF4FF0010C02E000BF27
:100DC0004FF0010C4DF804CD4FEA40024FEA4103C9
:100DD0007FEA226C18BF7FEA236C11D001B052EA7F
:100DE000530C18BF90EA010F58BFB2EB030088BF45
:100DF000C81738BF6FEAE17018BF40F001007047B4
:100E00007FEA226C02D15FEA402C05D17FEA236C95
:100E1000E4D15FEA412CE1D05DF8040B704700BFDC
:100E2000844608466146FFE70FB5FFF7C9FF002873
:100E300048BF10F1000F0FBD4DF808EDFFF7F4FFAC
:100E40000CBF012000205DF808FB00BF4DF808ED45
:100E5000FFF7EAFF34BF012000205DF808FB00BF68
:100E60004DF808EDFFF7E0FF94BF012000205DF88A
:100E700008FB00BF4DF808EDFFF7D2FF94BF01203B
:100E800000205DF808FB00BF4DF808EDFFF7C8FF34
:100E900034BF012000205DF808FB00BF0000000007
:100EA00042000ED2B2F1FE4F0BD34FF09E03B3EBD4
:100EB000126209D44FEA002343F0004323FA02F000
:100EC00070474FF00000704712F1610F01D14202EC
:100ED00002D14FF0FF3070474FF00000704700BF65
:100EE00070B48407034644D0541E002A3FD0CEB2CB
:100EF00002E0002C3BD0144603F8016B13F0030F03
:100F00001D4604F1FF32F4D1032C29D9CAB20F2CAB
:100F100084BF2B46264642EA022242EA024211D907
:100F2000103E1A605A609A60DA6010330F2EF7D8BC
:100F3000A4F1100304F00F0423F00F031033032C6B
:100F40001D440DD92E462346043B46F8042B032BA3
:100F5000FAD8231F04F0030423F003030433ED182D
:100F60002CB1C9B22C1905F8011BA542FBD170BCEC
:100F7000704705461446C7E7000000000000000067
:100F80000CB4F0B59DB022AC0E4602A96FF000453E
:100F900054F8042B4FF402770495234607950296E4
:100FA0004FF6FF75ADF814700696ADF81650019423
:100FB00000F036F8029B00221A701DB0BDE8F04028
:100FC00002B070470EB440F60003F0B59CB021ACFF
:100FD000C2F20003064602A954F8042B6FF0004544
:100FE00018684FF402772346049507954FF6FF756E
:100FF0000296ADF814700696ADF81650019400F004
:101000000FF8029B00221A701CB0BDE8F04003B03C
:10101000704700BF0000000000000000000000005A
:101020002DE9F04FC5B0894614460F93099002F0A0
:10103000E9F900230022CDE918230068179003F096
:10104000DFFAB9F80C3003F080031BB21A9023B119
:10105000D9F81030002B00F0C0870DF1D00ACB4634
:10106000D046D1460DF1CF050023C5EB0A061093FB
:1010700007950A941C931B930C931D96CDF89CA086
:10108000299328930A9D2B78252B18BF002B00F05D
:10109000BC806A1C164601323378252B18BF002B02
:1010A000F8D10A9D771B11D0289C0A980134299DFC
:1010B000072C89E881003D442894D8BF09F108092C
:1010C000299500F382800C9DED190C953378002B47
:1010D00000F0F08601364FF0FF3420202B213546FA
:1010E00000230A960D938DF87B30089315F8013B89
:1010F000A3F12002582A00F25381DFE812F06401C4
:10110000510151010C025101510151015101510193
:10111000510111028800510161006C0151018701E8
:101120008C018C018C018C018C018C018C018C0157
:101130008C015101510151015101510151015101E4
:101140005101510151019D015302510153025101BD
:10115000510151015101880251015101D201510146
:10116000510151015101510131025101510121023D
:1011700051015101510151015101510151015101DF
:10118000510151014202F801530253025302070276
:10119000F8015101510159005101C601E5018D02CB
:1011A000590051018B005101080151015101B20157
:1011B000089E46F01006089698E776420F930D9623
:1011C000089E46F00406089690E70998594627AA13
:1011D00003F046FA48B9D14675E70998594627AA57
:1011E00003F03EFA002800F0F882D946B9F80C3036
:1011F0000C9D03F040031BB2002B18BF4FF0FF35CE
:101200000C950C9845B0BDE8F08F0A9E5EE78DF80E
:101210007B106BE70F9E0A9500258DF87B50366892
:101220000F9815931196061D1199002900F06687F5
:10123000002C1198C0F22B872946224602F0B0FB01
:10124000002800F0CA8711991295401A0E90A0420A
:1012500040F33C860F9624EAE475129E9DF87B309D
:101260000B950E94169613B10B9E01360B96089BA8
:1012700013F00203139302D00B9D02350B95089EC9
:1012800016F08406149640F0DE810D9D0B982E1A00
:10129000002E40F3D881102E299D40F306874FF091
:1012A0001008289CA44F02E0103E102E16DD0134D9
:1012B0001035072C89E88001289409F1080929953F
:1012C000F2DD0998594627AAD14603F0C9F900284A
:1012D0008BD1103E299D102E289CE8DC0134C9F8E2
:1012E0000070072CC9F80460354428942995D8BFAC
:1012F00009F1080940F3A8810998594627AA03F083
:10130000AFF900287FF471AF299DD1469CE1089E7A
:101310000A95F006159340F12D810F9D2B68043539
:101320000122191C0F9518BF012100208DF87B00A8
:10133000002CA2BF089D25F080050895002C18BF41
:1013400041F00101C9B2002900F0B782012A00F082
:10135000F783022A0DF1CF0200F0E48303F00701C6
:1013600010463031013ADB080170F7D1089E119028
:10137000F50740F10684302900F0A686C2EB0A0684
:1013800011920E96302200F8012C0E9D00269DF839
:101390007B30A542B8BF254612940B95169662E79E
:1013A0000A951593002B00F0858501258DF8A8304E
:1013B0002AAE00230B950E958DF87B3011960026F2
:1013C0001296169653E79DF87B30002B7FF48EAE75
:1013D0008DF87B008AE615F8013B2A2B00F0728716
:1013E000A3F130020024092A3FF682AE2E460024E3
:1013F00016F8013B04EB840402EB4404A3F1300231
:10140000092A3546F4D944EAE47471E6089E46F0A8
:10141000800608966AE62E460022A3F1300C16F8E4
:10142000013B02EB8202A3F130073546092F0CEB9A
:101430004202F2D90D925BE6089E0A9546F010062C
:101440000896089D1593EE0656D50F9E3368043610
:101450000F96002BC0F27A840CBF002101210122DB
:1014600066E70A95354D15931C95089DEA066ED5DD
:101470000F9E336804360F96089EF60700F1BD8371
:10148000191C18BF012102224FE70A95089DED069D
:1014900040F1A2840F9E0C9D336804360F961D60A8
:1014A000F0E50A95089D159345F010050895089EEE
:1014B00016F010020ED00F9D00222B6804350F95F8
:1014C000991A18BF012130E7089E0A9516F01002FC
:1014D0001593F0D1089E16F0400100F073840F9D23
:1014E0002B8804350F95191C18BF01211DE70A959B
:1014F000089D1593EE06A8D4089D6D0640F17984E9
:101500000F9EB6F9003004360F96A2E7089E46F00B
:1015100040060896EAE5089E46F001060896E5E5CD
:101520000F9E36680D960F9E331D0D9E002EFFF602
:1015300044AE0F93DAE500BFE0820008C48A0008D9
:101540000A95089DA74EEA0615931C9690D4089D0F
:101550006B0640F131840F9E338804360F968BE77B
:101560000A95089D159345F010050895089EF0060C
:101570003FF5D3AE089E710640F10D840F9D2B8878
:10158000CDE6159300220F9B0A9501251E1D0B9594
:101590001B680E952AAD0F968DF87B2011958DF85E
:1015A000A8300CE70A950F9D1593E91D21F007015E
:1015B00001F108060F9691E8C00030463946CDE9A2
:1015C00018013046394602F003FF0128304640F04A
:1015D000C78300220023394604F042FD002840F072
:1015E000BE859DF87B3003250B95089D00267E4A1D
:1015F00025F080057D490895159D12960326472DF7
:10160000D8BF11460E961191002616962BE6089E1D
:1016100046F00806089669E50F9B78200A95302267
:101620001D1D0F951B68724D089E8DF87C200222AF
:10163000191C46F002068DF87D0018BF012108969E
:101640001C95159071E6299D9DF87B308BB1289CE7
:101650000DF17B03C9F8003001230134C9F80430CF
:10166000072C1D442894D8BF09F10809299500F3D7
:10167000F581139B83B1289C1FABC9F8003002236E
:101680000134C9F80430072C1D442894D8BF09F14F
:101690000809299500F3ED81149E802E00F0218128
:1016A00012980E9BC61A002E3ADD102E289CD8BF29
:1016B000504F1EDD4FF010084E4F02E0103E102E2E
:1016C00017DD01341035072C89E88001289409F1D1
:1016D00008092995F2DD0998594627AAD14602F052
:1016E000BFFF00287FF481AD103E299D102E289C5D
:1016F000E7DC0134C9F80070072CC9F804603544F0
:1017000028942995D8BF09F1080909DD0998594697
:1017100027AA02F0A5FF00287FF467AD299DD146D6
:10172000089EF3056AD4289C0E9B0134119E072C59
:101730001D44C9F80430C9F800602995289400F3C5
:101740007E8109F10809089E73073BD50D980B9916
:10175000461A002E36DD102E289CD8BF264F1EDDDF
:101760004FF01008244F02E0103E102E17DD013418
:101770001035072C89E88001289409F1080929957A
:10178000F2DD0998594627AAD14602F069FF0028E0
:101790007FF42BAD103E299D102E289CE7DC0134F0
:1017A000C9F80070072CC9F80460354428942995BD
:1017B00008DD0998594627AA02F052FF00287FF455
:1017C00014AD299D0C9E0B990D988142ACBF7618E3
:1017D00036180C96002D7FF400AD0023D1462893D7
:1017E00050E400BFB08A0008A08A0008A48A00085C
:1017F000C48A0008F0820008E0820008159E652E69
:1018000040F3B280DDE918010022002304F01EFC41
:10181000002800F03D81289C0123C9F804300135DF
:101820000134994B072CC9F80030D8BF09F10809D9
:101830002995289400F3E382209B109EB34203DB9A
:10184000089EF6077FF57FAF1A9E289CAD19179E5C
:101850000134072CC9F800601A9EC9F80460D8BF8B
:1018600009F108092995289400F3A9831098461EC8
:10187000002E7FF768AF102E289CC4BF4FF01008D1
:10188000824F04DCCFE0103E102E40F3CD800134B7
:101890001035072C89E88001289409F10809299559
:1018A000F1DD0998594627AAD14602F0D9FE002851
:1018B0007FF49BAC299D289CE5E7002A40F0CA8074
:1018C000089EF1075CBF0E92CDF844A07FF55DAD98
:1018D0001D9D30230DF1CF068DF8CF3011960E955A
:1018E00053E50D980B99461A002E7FF7D9AE102EAE
:1018F000289CD8BF654F1EDD4FF01008634F02E0F3
:10190000103E102E17DD01341035072C89E88001B8
:10191000289409F108092995F2DD0998594627AA62
:10192000D14602F09DFE00287FF45FAC103E299D59
:10193000102E289CE7DC0134C9F80070072CC9F888
:101940000460354428942995D8BF09F108097FF728
:10195000A7AE0998594627AA02F082FE00287FF414
:1019600044AC299DD1469BE6109E289C012E3EDD6D
:10197000119E013401350123072CC9F80430C9F840
:101980000060D8BF09F108062995289400F3C681A4
:1019900001341A991798072C0D447160306028940F
:1019A000299500F3C7810836DDE9180100220023DC
:1019B00004F04CFB002840F0E980109A01341198A3
:1019C000531E7360421C072C32601D4428942995D5
:1019D0001DDC083601341B98072C23AB054433600B
:1019E0007060299528942ADC06F10809ABE6089E68
:1019F000F207BDD40134119E01350123072CC9F82B
:101A00000430C9F800602995289440F3E3820998CE
:101A1000594627AA02F024FE00287FF4E6AB56467A
:101A2000299D289CD6E7194F0134C9F80070072C6E
:101A3000C9F804603544289429957FF782AE099847
:101A4000594627AA02F00CFE00287FF4CEABD146FF
:101A5000299D78E60E91CDF844A096E40998594660
:101A600027AA02F0FDFD00287FF4BFAB299DD146D7
:101A7000FFE50998594627AA02F0F2FD00287FF4F5
:101A8000B4AB299DD14607E6D88A0008F082000849
:101A9000209E002E40F3BE81109E1698119986421A
:101AA000A8BF0646109A002E11440E910FDD289C07
:101AB000AD19119A0134C9F80460072CC9F8002047
:101AC000D8BF09F108092995289400F3F282169BE2
:101AD00026EAE6769E1B002E40F3B980102E289C45
:101AE000D8BFB24F40F39C804FF01008AF4F03E0D7
:101AF000103E102E40F3948001341035072C89E8F5
:101B00008001289409F108092995F1DD09985946C1
:101B100027AAD14602F0A4FD00287FF466AB299DD8
:101B2000289CE5E71C9D03F00F001146013A1B09B4
:101B3000285C0870F7D1C1EB0A0511910E9524E4D9
:101B4000092B08D81D9D30330DF1CF068DF8CF300D
:101B500011960E9519E44CF6CD450DF1CF01CCF65A
:101B6000CC45A5FB030208460139D20802EB8206E8
:101B7000A3EB4606134606F130020270002BF0D1AB
:101B80001190C0EB0A030E93FFF7FFBB109901F110
:101B9000FF38B8F1000F7FF71DAFB8F1100F834F7A
:101BA000C8BF4FF0100905DC1DE0A8F11008B8F11E
:101BB000100F18DD013486E8800210350836072C36
:101BC00028942995F1DD0998594627AA564602F02E
:101BD00047FD00287FF409ABA8F11008299DB8F152
:101BE000100F289CE6DC013486E88001072C454470
:101BF000289429957FF7EDAE09E719460222002BBC
:101C00003FF493AB159D3022089E01218DF87C2076
:101C1000022246F002068DF87D500896FFF785BB3C
:101C20000134C9F80070072CC9F8046035442894C1
:101C30002995D8BF09F1080909DD0998594627AA4D
:101C400002F00EFD00287FF4D0AA299DD146209BEA
:101C5000109A11981699934200EB010642DB0898FE
:101C6000C1073FD40E981099871BCB1ABB42B8BF4F
:101C70001F46002F0EDD289CED19C9F800600134C5
:101C8000C9F80470072C29952894D8BF09F10809D0
:101C900000F3268227EAE7769E1B002E7FF753ADDE
:101CA000102E289CC4BF4FF01008404F04DCBAE649
:101CB000103E102E7FF7B8AE01341035072C89E89E
:101CC0008001289409F108092995F1DD0998594600
:101CD00027AAD14602F0C4FC00287FF486AA299DD9
:101CE000289CE5E7289C1A990134179A072C0D4483
:101CF000C9F80410C9F80020D8BF09F108092995CE
:101D00002894AFDD0998594627AA02F0A9FC0028BB
:101D10007FF46BAA209BD146299DA3E709985946D9
:101D200027AA02F09DFC00287FF45FAA299D564651
:101D3000289C2DE60998594627AA02F091FC002814
:101D40007FF453AA299D5646289C2DE65B42191C18
:101D500018BF01212D228DF87B200122FFF7E8BA60
:101D6000394602F035FB002840F0BA800325089E72
:101D70000B950F4A26F080060E49159D08960326FE
:101D8000472DD8BF114612909DF87B3011910E96C9
:101D90001690FFF768BA0F9E0122336804360F963B
:101DA000191C18BF0121FFF7C0BA00BFF08200085C
:101DB000A88A0008AC8A00080F9D2B6804350F958F
:101DC000FFF75ABB0F9E0A46336804360F96191C5C
:101DD00018BF0121FFF7A9BA0F9D089E2B68043593
:101DE00016F0400F0C9E0F9514BF1E801E60FFF76B
:101DF00049B90F9D2B6804350F95FFF72ABB099849
:101E0000594627AA02F02CFC00287FF4EEA9299D50
:101E1000D14611E5289C0123C9F80430013501346D
:101E2000AC4B072CC9F80030D8BF09F10809299537
:101E3000289400F3E2802EB9109919B9089AD007B6
:101E40007FF581AC289C1A9B01341798072C1D4400
:101E5000C9F80430D8BF09F1080CC9F80000299569
:101E6000289400F302817642002E40F3ED80102E7C
:101E7000994FC4BF4FF01008DDF8249004DCCBE08C
:101E8000103E102E40F3C88001341035072C8CE82A
:101E9000800128940CF1080C2995F1DD484659463B
:101EA00027AA02F0DDFBD44600287FF49EA9299DD5
:101EB000289CE5E7299BD946002B3FF497A9099870
:101EC000594627AA02F0CCFBFFF790B90E9B0F965C
:101ED00023EAE37316950B939DF87B30FFF7C3B9A4
:101EE000601C00F0CF80159921F02005472D02D10C
:101EF000002C08BF0124089A002F42F4807213922C
:101F0000C0F2788100201290B5F146025142514151
:101F1000002940F0FF80452D40F06A8104F101085E
:101F20000221CDF80480324600913B4620A9099851
:101F3000029121A9039122A9049100F09DFA804405
:101F40001190304600220023394604F07FF850B942
:101F5000229B984598BF984605D9302203F8012B5B
:101F600043452293FAD1119E472DC6EB08061096E1
:101F700000F0FD80159E652E40F3D081159D209ABE
:101F8000662D00F04A81109DAA42C0F23881089E59
:101F9000F60700F1828122EAE27567260B950E9220
:101FA00015961692129D002D00F01181139E2D237F
:101FB0008DF87B30002312930896FFF755B90998E6
:101FC000594627AA02F04CFB00287FF40EA9299D50
:101FD000D1464BE409F10806FCE40998402101F0E0
:101FE00027FAC9F80000C9F81000002800F098810D
:101FF0004023C9F81430FFF730B80998594627AA8A
:1020000002F02EFB00287FF4F0A8209ED146299DE7
:10201000002E7FF417AF0FE70134CCF80070072CC7
:10202000CCF80460354428942995D8BF0CF1080CED
:102030000ADD0998594627AA02F012FB00287FF40E
:10204000D4A8299DD446289C119E0134072CD8BFC2
:102050000CF10809CCF80060109E3544CCF80460FF
:10206000289429957FF76FABE9E40998594627AA88
:1020700002F0F6FA00287FF4B8A8209ED446299DE5
:10208000289CF0E61598062420F0200533E71295E9
:1020900002F0B6FA0F96129E9DF87B30169620EA53
:1020A000E0750E900B95FFF7DEB8289C0B4FFFF7FD
:1020B00015B90998594627AA02F0D2FA00287FF4E8
:1020C00094A8299DD14602E5119DC5EB0A050E9500
:1020D000FFF75BB9D88A0008F0820008E0820008A8
:1020E0000998594627AA02F0BBFA00287FF47DA878
:1020F000209BD146109E299DF31ACBE50F96062C06
:1021000028BF06248A4E24EAE4750E940B95119696
:10211000FFF755B9032000900DF1880E20A8324634
:1021200002903B4621A801940390CDF810E0099855
:10213000069100F0A1F9472D0699119002D1089A55
:10214000D30711D5119B03EB040800293FF4F9AE26
:102150001B78302B00F0A980209B9844F1E62D23BA
:102160008DF87B30FFF73FBA229B1B1A1093209B00
:10217000D81C1A4602DB9C42BFF605AF159D023DF6
:102180001595013B159D002B20938DF88C50C0F2C6
:10219000BD802B228DF88D20092B49DC30228DF853
:1021A0008E2024AA30338DF88F30109D23ABD31AA4
:1021B0001B93012D2B440E9340F397800E9E002518
:1021C000169501360E9626EAE6760B96EAE6139DFC
:1021D0009DF87B300895FFF746B824EAE475129025
:1021E0000B959DF87B300F960E941690FFF73BB839
:1021F000022090E72D2307F10047129384E6002A7E
:10220000109DD4BFC2F1020301235B19672623EAA4
:10221000E3750E9315960B95C3E6002A5DDDACBB06
:10222000089EF10732D422EAE2750E920B95B8E6C9
:1022300046F267610DF19A05C6F2666181FB0360A3
:10224000DA172C46013DC2EBA00202EB8200A3EBA1
:1022500040001346092B00F130022270EEDC0DF134
:102260009B003033A842DAB204F8012C53D90DF1A7
:102270008D01234601E013F8012B834201F8012F61
:10228000F9D144A8C4EB4002F63A8EE701341419A0
:102290000E9424EAE4760B9683E6531C672523EA22
:1022A000E3760E9315950B967BE6304600220023CD
:1022B000394603F0CBFE00287FF44EAFC4F1010392
:1022C00020934AE70F9E331D3468002CBFF631A9D6
:1022D0000F934FF0FF34FEF709BF8CB9089DEB0751
:1022E0000ED401260B960E965BE6089E16F00103AF
:1022F0007FF464AF0E9D169325EAE5750B9551E6C4
:1023000002340E9424EAE4760B964AE62D225B42D0
:102310008DF88D2040E70DF18E0246E7209B30E7D7
:10232000099E4FF0FF350C230C953360FEF769BF13
:10233000B085000800000000000000000000000060
:102340002DE9F04F8146036983B00D6900200191AA
:102350009D4200F38E80EA1C01F11404013D09F155
:10236000140892008B184A441F1D596850680131A7
:1023700003F0B6FA0646002841D04FF0000E424660
:1023800023467046A24653F8041B14681FFA81FCCA
:102390004FEA114BA1B206FB0CEC091806FB0BFE31
:1023A0000EEB1C4E1FFA8CFCCCEB01011FFA8EF0D9
:1023B0004FEA1E4EC0EB14401FFA81FC00EB214097
:1023C0004CEA004100149F4242F8041BDBD22B1D53
:1023D000544609EB83035A688AB91A1D98450CD2F2
:1023E00052F8042C4AB9043B01E012682AB9013DB5
:1023F00098451A46A3F10403F7D3C9F8105048468C
:10240000019901F0DFFD002832DB013643464FF031
:10241000000C54F8040B19681FFA80FA000C8AB2F9
:10242000C0EB1141CAEB0202A742944401EB2C42DB
:102430001FFA8CFC4CEA02414FEA224C43F8041B81
:10244000E7D22B1D09EB83035A688AB91A1D9845F8
:102450000CD252F8042C4AB9043B01E012682AB9A4
:10246000013D98451A46A3F10403F7D3C9F810506B
:10247000304603B0BDE8F08F2DE9F04F9B469BB08E
:10248000036C07469246279C53B1426C01251946BE
:1024900005FA02F59D605A6001F052FB00233B648F
:1024A000BBF1000539DB0023236000231A46C7F681
:1024B000F073C7F6F0722B40934217D0002200232E
:1024C00050465946D04603F0C1FD00282BD026982F
:1024D000012328990360002900F0D680A24B03F164
:1024E000FF390B6048461BB0BDE8F08F269842F2DA
:1024F0000F730360BAF1000F00F0AD80DFF8709247
:1025000028990029EED099F80330002B00F053826F
:1025100009F10803289A1360E4E725F00045012338
:10252000AB462360C1E719AB38460093524618AB5F
:1025300001935B46C5F30A5601F052FE0B90002E44
:1025400040F09280DDF860806FF48263199E46440B
:102550009E42C0F24D824FF60E4306F21242CFF673
:10256000FF732AFA02F29B1B05FA03F01043FEF7F1
:1025700049F9013E01231393A1F1F87100230022D0
:10258000C3F6F873FEF700F871A3D3E9002303F054
:10259000EFFA71A3D3E90023FDF7F8FF04463046B4
:1025A0000D46FEF73FF96EA3D3E9002303F0E0FAEE
:1025B00002460B4620462946FDF7E8FF04460D4635
:1025C00003F076FD2946002200230490204603F004
:1025D00047FD002840F0F5810499162900F2EE81AC
:1025E0000498524661495B4601EBC001D1E9000104
:1025F00003F054FD002800F0038204990022129297
:1026000001390491C6EB0806B6F1010942BFC9F1D0
:102610000009CDF81C904FF0000901D4002007906C
:1026200004990029C0F2DB81894400220F910C92A9
:10263000249B092B2BD80125052B02DD0025043B0B
:1026400024932498831E032B23D8DFE813F0470339
:10265000440335031702464BC5F31305454A002DC5
:102660000CBF914699464BE72BF07F43002223F4A1
:102670007003504643F07F53A6F2FF36DDF86080CA
:1026800043F44011139279E7DFF8EC902AE7002336
:102690002493002438467C6421464FF0FF320E928A
:1026A00001F026FA0E9B25940A93069038640120C7
:1026B0000D90199B002BC0F2C18004980E2800F3E6
:1026C000BD8025990A9ACB0F002ACCBF002303F0C6
:1026D0000103264A02EBC002D2E90089002B40F038
:1026E0004F8442464B465046594603F06BFB5446D6
:1026F00003F0DEFC069E8246FEF794F842464B4607
:1027000003F036FA0B46024659462046FDF73CFFD9
:102710000AF1300306F8013B0A9B012B04460D46E3
:102720005ED000230022C4F2240303F021FA002229
:10273000002304460D4603F089FC002840F0E8849D
:1027400006990A9A8E1C039701EB020B21E000BF49
:1027500061436F63A787D23FB3C8608B288AC63FA7
:10276000FB799F501344D33FD98A00081083000897
:10277000EC8A0008E08A0008D88A000803F0F8F91B
:102780000022002304460D4603F060FC002840F0C0
:10279000BD8442464B462046294603F013FBB24611
:1027A00003F086FC0746FEF73DF842464B4603F031
:1027B000DFF902460B4620462946FDF7E5FE0023D9
:1027C00000225E4507F1300EC4F2240306F801EC46
:1027D00006F1010604460D46D0D15646BA46039F7F
:1027E00022462B4620462946FDF7D0FE04460D46DC
:1027F0004046494622462B4603F032FC002800F0B2
:102800003585049B3246DDF8189016F8014C069683
:10281000159302E013F8014C1A46531E392C40F070
:102820000A859945F6D13023159989F800304B4631
:1028300006920131312204911A70ABE00D99002902
:1028400040F0E0800C9D079CDDF83480B9F1000F6A
:10285000C8BF002C09DDA145B4BF4B4623460798ED
:10286000E41AC3EB0909C01A07900C9900291ADD74
:102870000D9A002A00F04284002D10DD41462A46C0
:10288000384601F0F5FA0B9A80463846414601F089
:1028900051FA0B990646384601F052F90B960C9BFB
:1028A0005A1B40F086840121384601F039FA064669
:1028B0000F98002805DD314638460F9A01F0D8FA06
:1028C00006462499012940F3C08000250F9B012072
:1028D000002B40F04C8300EB090313F01F0300F0C2
:1028E0003482C3F12002042A40F34F85C3F11C0354
:1028F0000798E4189944C0180790079A002A04DD45
:1029000038460B9901F0FEFA0B90B9F1000F05DD86
:10291000314638464A4601F0F5FA0646129B002B2E
:1029200040F0088324990A9A0229D4BF0023012386
:10293000002AC8BF0023002B00F00E820A9900294C
:1029400040F0FC81314605220A9B384601F002F92D
:1029500006460B98314601F035FB002840F3EE8126
:10296000069B0025049831229946013003F8012B7B
:10297000049006933846314601F0E2F8B8F1000FB2
:1029800008D0454518BF002D40F03E8238464146EC
:1029900001F0D6F838460B9901F0D2F806990022DA
:1029A00004980A70431C269A1360289B002B3FF45E
:1029B00099AD196096E509F10303ABE50123129384
:1029C00020E60498FDF72EFF22462B4603F03EFB3F
:1029D00000287FF401AE049801380490FCE5079BC1
:1029E000002204980F921B1A414207930C911FE694
:1029F0004FF6EE30CFF6FF70801B0AFA00F0B6E516
:102A00001290FFE5249A012A40F3DA830A990C9A7E
:102A10004B1E9A42A8BFC3EB020506DA0C980025AC
:102A20000F991A1A0C9389180F910A9A002AC0F26A
:102A3000D883079C0A9B079A384601219944D218EB
:102A4000079201F06DF9804600E7BAF1000F7FF4BC
:102A50003CAFCBF313025546002A7FF437AF002575
:102A6000C7F6F0750BEA0505002D3FF42FAF079A66
:102A700009F1010901250132079227E701230D938E
:102A80002598049BC3180E935A1C002A40F32883F0
:102A90000E2A8CBF002505F001050A920021172A95
:102AA000796409D9012404235B00214603F1140051
:102AB00001349042F8D97964384601F019F806904B
:102AC0003864002D3FF4F5AD0499CDE910AB002931
:102AD00040F3A58101F00F02A54B4FEA211803EB4B
:102AE000C20318F0100FD3E9004500F08681A14B16
:102AF0005946504608F00F084FF0030BD3E908235E
:102B000003F060F9CDE90801B8F1000F11D0994E3A
:102B100018F0010F2046294607D0D6E900230BF113
:102B2000010B03F025F804460D4608365FEA6808F5
:102B3000EED1DDE9080122462B4603F043F9CDE949
:102B40000801129951B10023DDE908010022C3F602
:102B5000F07303F085FA002840F0DE825846FDF756
:102B600061FEDDE9082303F003F800230022C4F22C
:102B70001C03FDF70BFD0A9A8246A1F1507B002A47
:102B800000F0BF80049B0A9E15930D98002800F06A
:102B90007581774B00210020C3F6E07103EBC6037B
:102BA000069D53E9022303F00DF952465B46FDF7FB
:102BB000EBFC82468B46DDE9080103F079FA044616
:102BC000FDF730FE3034E4B202460B46DDE9080181
:102BD000FDF7DAFC05F8014BCDE9080150465946EE
:102BE000DDE9082303F05AFA002840F0BF830021F2
:102BF000DDE908230020C3F6F071FDF7C5FC0246AD
:102C00000B465046594603F049FA002840F0E3824B
:102C1000012E40F301810699CDF858908E19DDE917
:102C20000889149708962E4610E000210020C3F66C
:102C3000F071FDF7A9FC52465B4603F011FA00283B
:102C400040F0C782089A964200F0E38000230022F9
:102C5000C4F224035046594602F08AFF00230022A2
:102C6000C4F2240382468B464046494602F080FF68
:102C700004460D4603F01CFA0746FDF7D3FD024655
:102C80000B4620462946FDF77FFC07F130045246EB
:102C90005B46E4B206F8014B8046894603F0E0F952
:102CA00042464B460028C0D0159B3546DDF81890AB
:102CB000149F049306966DE601220D922599002932
:102CC00040F317820A460E298CBF002505F0010546
:102CD0000E910A91E2E600220D92D1E600200D90BD
:102CE000ECE75846FDF79EFDDDE9082302F040FFC2
:102CF00000230022C4F21C03FDF748FC8246A1F128
:102D0000507B00230022C4F21403DDE90801FDF723
:102D10003BFC52465B465C46CDE9080103F0BEF938
:102D20000646002840F0A7805246DDE908010BF175
:102D3000004303F095F900286ED0B046259A00258F
:102D4000DDF81890D243049214E61C230799E41886
:102D50009944C9180791D0E50D99002940F03A81AE
:102D600000240B9DDDF82890DDF818A007E000BFD7
:102D7000108300080084000800F0ECFE0546314690
:102D80002846FFF7DDFA0A220023294600F1300B1E
:102D90000AF804B0013438464C45EDDBDDF818A0E4
:102DA0000A980B9500250128ACBF82440AF1010A5C
:102DB00001220B99384601F0A5F831460B9001F03D
:102DC00001F9002840F33F821AF8012C069902E02D
:102DD00013F8012C9A46392A0AF1FF3340F0748225
:102DE0009942F5D1DDF8189031230499CDF818A057
:102DF000013189F800300491BCE5DDE910234FF082
:102E0000020BCDE908237FE63846294600F098FEFC
:102E1000BCE5DDF85890149FDDE910AB49E4049B54
:102E20005C42002C00F0A28104F00F02A54BDDE90A
:102E3000100103EBC203D3E9002302F099FE241131
:102E4000CDE9080100F08E829F4D4FF0020B024643
:102E50000B46E6071046194607D5D5E900230BF1C6
:102E6000010B02F085FE02460B4608356410F0D1D6
:102E7000CDE9082365E60026B04671E5731E14937C
:102E8000149852468F495B46069D01EBC001D1E97B
:102E9000000102F06DFECDE91601DDE9080103F045
:102EA00007F90446FDF7BEFC303402460B46DDE967
:102EB0000801FDF769FB012E05F8014B82468B46A0
:102EC00022D0069ABA46541E9046A4190023002226
:102ED000C4F2240302F04CFE0F46064603F0E8F865
:102EE0008346FDF79FFC0BF1300B02460B46304644
:102EF0003946FDF749FB08F801BFA045E6D1149B10
:102F000057468B468246ED1800230022C3F6E07335
:102F1000DDE91601FDF73AFB52465B4603F0A0F8E7
:102F2000002800F02A81DDF818902A4615F8014C97
:102F3000069572E40B98314601F044F80028BFF67C
:102F4000F1AC0B9938460A22002300F003FE0D99DC
:102F50000B9004980138049041BB0E98002803DCC4
:102F60002499022900F30D820E9A0A92F8E6336939
:102F700006EB8303186900F087FEC0F12000AAE485
:102F80000A98002840F07081002340460022C4F2D5
:102F90001403494602F0ECFD52465B4603F074F818
:102FA0000A9EB04600287FF4C9AED9E400230A2265
:102FB0004146384600F0CEFD249A80460E980028FF
:102FC000CCBF00230123022AD8BF0023002B40F0EE
:102FD000D4810A90002C05DD41463846224600F097
:102FE00091FF8046002D40F05881CDF83480069A3C
:102FF000B346DDF8349045460B9E541C0A9B0AF0FC
:1030000001000790D3180C9359463046FFF798F902
:1030100029468046304600F0D5FF59464A4682464A
:10302000384600F0EDFF08F130020592611E0A916A
:10303000C2680346002A3DD0012219463846029252
:1030400000F07EFD029A249B134303D107980028C9
:1030500000F07281BAF1000FC0F2C78024995AEAD9
:10306000010103D1079B002B00F0BF80002A00F371
:103070003A810C9BA246059A9C4204F8012C00F070
:10308000498131460A220023384600F063FD4D4550
:1030900006461BD029460A220023384600F05AFD76
:1030A00049460A22002301340546384600F052FD05
:1030B0008146A9E719463046029300F083FF029B40
:1030C0000246BAE710830008008400082946384603
:1030D0000A22002300F03EFD01340546814693E7B5
:1030E0000E2A0A928CBF0023012300211D4079641F
:1030F000E2E401230E930A932593F6E738460B99F1
:103100000C9A00F0B5FE0B90FFF7CDBB039F56461F
:10311000DDF8189006963DE40A9A002A3FF4E1ADE6
:103120000E9B002B7FF778AE00230022C4F224030D
:10313000DDE9080102F01CFDCDE908010BF10100F9
:10314000049901391591FDF76DFB02460B46DDE947
:10315000080102F00DFD00230022C4F21C03FDF75C
:1031600015FA0E9E8246A1F1507B0EE5DDE91001B5
:103170004FF0020BCDE90801E3E40021DDE916235D
:103180000020C3F6E071FDF7FFF952465B4602F0FE
:1031900085FF00283FF440AE2B46013D13F8012C7B
:1031A000302AF9D01599DDF8189006930491FFF7AD
:1031B000F1BB38460B9900F05BFE0B90FFF773BB39
:1031C0001398002800F0888003F233430C9D079C7D
:1031D00031E4149F3546DDF818902A460695FFF72E
:1031E0001CBB079B9C1A002325E40B96002A5E4615
:1031F000DDF814B0CDF834905C4610DD01220B9957
:10320000384600F07FFE31460B9000F0DBFE0028D0
:1032100040F3A180392C08F1310B00F08380DDF8F8
:1032200028A0DDF81890DDF834800AF801BBCDF84D
:1032300018A0FFF79FBB15980692621C0490D2B2AB
:103240001A70FFF7A7BB03D11BF0010F7FF4BCADD1
:1032500053460AF1FF3A13F8012C302AF8D0DDF872
:1032600018900693FFF786BB002666E54046494660
:1032700022462B4602F0EAFE00283FF449AF1AF03E
:10328000010FDDF818903FF445AF0498324616F868
:10329000014C06961590FFF7C0BAD8F804103846CE
:1032A00000F026FCD8F8103008F10C019A1C9200AE
:1032B000044600F10C0000F0C3FB38462146012211
:1032C00000F020FE0D9092E60132DDF818901A70A1
:1032D000CDF818A0FFF74EBB189B0C9D079CC3F1BF
:1032E0003603FFF7A8BB0B965E46DDF814B0CDF8A9
:1032F0003490BBF1390F15D0DDF828A00BF1010C8B
:10330000DDF81890DDF834800AF801CBCDF818A06C
:10331000FFF730BB0B96C8465E46CDF83490DDF81B
:1033200014B045E5DDF828A03923DDF834801A46CD
:1033300006990AF8013B4EE50B965E46DDF814B09F
:10334000CDF83490BBF1390FECD0BAF1000FC8BF03
:1033500008F1310B63E77FF462AF1BF0010F3FF41C
:103360005EAF57E74FF0020BFFF7EBBB159ADDF8A6
:10337000189006950492FFF70DBB0E9B0A93FFF77A
:10338000DDBA0E980A90FFF7D9BA3FF4B6AAC3F196
:103390003C03DBE4AFF3008000000000000000000D
:1033A00010B5144622B110460A4901F039F808B99F
:1033B000094810BD2046084901F032F80028F7D02E
:1033C0002046064901F02CF8034B00280CBF184694
:1033D000002010BD008B0008F08A00086C890008EE
:1033E00040F63040C2F20000704700BF40F6304364
:1033F000C2F20003186A704700487047540C00205E
:103400000020704700487047740C002040F600030D
:103410000A46C2F2000301461868FFF7C1BF00BFA9
:1034200000487047740C00200000000000000000FD
:103430002DE9F04F01F10B04162C83B006462DD96F
:1034400024F00704E30F8C422CBF194643F001011E
:1034500000292CD1304600F043FBB4F5FC7F2BD281
:103460004FEAD40CB94F07EBCC02D368934200F07B
:103470000082596803F10808DA68304621F0030435
:1034800099681B195C68CA6044F0010491605C6033
:1034900000F028FB404603B0BDE8F08F0023102465
:1034A0008C422CBF194643F001010029D2D00C23D5
:1034B0004FF000083360EDE75FEA542C04BF4FEA99
:1034C000D40C4FEA4C0540F08980A04F07EB8505EE
:1034D000EB689D4206D10DE0002A80F24981DB684D
:1034E0009D4207D0596821F003010A1B0F2AF3DD22
:1034F0000CF1FF3C0CF1010C944A3B6902F1080EFF
:10350000734508BFD2F8049022D0586820F0030019
:10351000011B0F2900F379810029C2F814E0C2F8D9
:1035200010E066DAB0F5007F80F04581C1084FF009
:10353000010802EBC100891008FA01F8516885689A
:10354000D86048EA0109C2F804909D60EB6083608E
:1035500001224FEAAC0302FA03F34B4554D819EAAF
:10356000030F0DD193402CF0030C19EA030F0CF15B
:10357000040C05D15B000CF1040C19EA030FF9D01F
:1035800007EBCC09E0464846C268904207D150E1BB
:10359000002980F27881D268904200F04A81556813
:1035A00025F00305291B0F29F2DD90461319D56874
:1035B00044F0010058F8084F41F0010C50603046CB
:1035C000C3F804C0E560AC607B613B61C3F80CE00C
:1035D000C3F808E0595000F085FA5BE7BCF1040F2E
:1035E00000F2D5804FEA941C0CF1380C4FEA4C05E0
:1035F0006BE71A1803F108083046536843F00103DB
:10360000536000F06FFA45E7BD686B6823F003096B
:103610004C4504D8C4EB09030F2B00F39B80DFF863
:1036200030A105EB0902D7F80814DAF800300131AF
:10363000234408BF03F1100B06D003F580530F336A
:1036400023F47F6323F00F0B30465946019204F0B8
:1036500067FB019AB0F1FF3F804600F05B81824238
:1036600000F22781DAF8043042455B44CAF804309E
:1036700000F05981D7F808143046013117BFC2EB6A
:103680000802324B9B18CAF8043008BFC3F80884FC
:1036900018F007031FBFC3F10802C3F5805390441D
:1036A00003F1080208EB0B0308BF4FF480521B051F
:1036B0001B0DC3EB020B594604F032FB431C00F018
:1036C0003E81C8EB00025A4442F00102DAF80430AD
:1036D000BD42C7F808805B44C8F80420CAF804302B
:1036E00017D0B9F10F0F40F20481A9F10C026968FB
:1036F00022F007024FF0050EA8180F2A01F0010171
:1037000042EA01016960C0F804E0C0F808E000F294
:103710001A81DAF82C20BD68934284BF0C4AD36228
:10372000DAF83020934284BF094A13636A6822F0B2
:1037300003029442C4EB020301D80F2B0ADC30468B
:103740004FF0000800F0CEF9A4E600BFAC0C00205A
:10375000F01000202A1943F0010344F00104304620
:103760006C6005F108085360BA6000F0BBF991E69F
:103770005918DA689C6830464D6803F1080845F02E
:103780000105E26094604D6000F0ACF982E6BCF1A6
:10379000140F9CBF0CF15B0C4FEA4C057FF695AE05
:1037A000BCF1540F00F28E804FEA143C0CF16E0C09
:1037B0004FEA4C0589E6420A042A73D9142A9CBFB1
:1037C00002F15B094FEA490508D9542A00F2C38087
:1037D0004FEA103909F16E094FEA490507EB8505F3
:1037E000DFF8B481AA68AA4276D0516821F00301BB
:1037F000884202D292689542F7D1D068D7F80490F7
:10380000D8609A60D3608360A2E61D1941F0010779
:10381000556144F00104156130465C6003F108080D
:10382000C5F80CE0C5F808E06F60695000F05AF97F
:1038300030E608F10108083018F0030F7FF4A4AE59
:103840004A461CF0030FA2F108010CF1FF3C00F006
:103850009A8012688A42F4D07A685B0093423FF6FD
:10386000D3AE002B3FF4D0AE1A4200F09180C44694
:1038700086E603F108025B699A4208BF0CF1020C6C
:103880003FF43AAEF5E590465519D368304658F8FE
:10389000082F6968D36041F001019A60696000F007
:1038A00021F9F7E54FEA901909F138094FEA49057E
:1038B00094E7BD423FF4D6AE374B9D686A6822F06C
:1038C000030236E7BCF5AA7F19D84FEAD43C0CF1C5
:1038D000770C4FEA4C05F8E50125D8F804104FEABB
:1038E000A909104605FA09F545EA0109C8F8049046
:1038F00086E701234546C8F80430002219E740F264
:1039000054539C450BD84FEA944C0CF17C0C4FEA75
:103910004C05DAE5BD686A6822F0030209E7FC2578
:103920004FF07E0CD1E51105090D00297FF4A2AE00
:10393000BA680BEB090141F001015160E9E601228F
:103940004FF0000BC2E6304605F1080101F09CFC87
:10395000124B5B68DDE6B2F5AA7F06D84FEAD03994
:1039600009F177094FEA490538E740F25451FC253F
:103970008A424FF07E099EBF4FEA904909F17C09C7
:103980004FEA49052AE77A6822EA03027A6064E787
:103990005B0008F1040867E7AC0C0020F010002081
:1039A0008307C9B270B440D0541E002A3FD00378B8
:1039B0008B4221D0431C04E004B30278013C8A42CC
:1039C0001AD013F0030F184603F10103F4D1032CAE
:1039D00016D8651E94B103788B420DD0421C00238B
:1039E00002E004788C4207D09D42104603F10103A7
:1039F00002F10102F5D1002070BC70472046FBE7C0
:103A000041EA012646EA064602460430136873403E
:103A1000A3F1013525EA030313F0803F03D1043CF1
:103A2000032CF1D8D5E71046D3E71446CFE710466C
:103A3000E2E700BF000000000000000000000000FE
:103A40000F2AF0B440D941EA00039B073ED10C464F
:103A5000034615462668103D1E6066685E60A668CF
:103A60009E60E6681034DE6010330F2DF2D8A2F1AC
:103A7000100502F00F0425F00F051035032C00EBA4
:103A80000503294424D9A4F1040C1D460C464FEA31
:103A90009C0C01EB8C07043754F8046BBC4245F8CE
:103AA000046BF9D10CF1010402F00302A40009191E
:103AB0001B193AB101399A1811F8014F03F8014B5B
:103AC0009342F9D1F0BC70470346F2E70346F1E7B1
:103AD0002246EEE7000000000000000000000000A9
:103AE000704700BF704700BF0000000000000000EA
:103AF00038B50546C36C0C464BB153F8240080B171
:103B0000026843F8242000230361C36038BD042108
:103B1000212201F03DFB0346E8640028EDD100209E
:103B200038BD01232846194603FA04F56A1D9200A0
:103B300001F02EFB0028F2D044608560E3E700BF6F
:103B400031B1C36C4A6853F82200086043F8221070
:103B5000704700BF2DE9F0478846D1F810A082B029
:103B6000814601F1140500242F680134BEB23F0CD8
:103B700002FB063602FB07F303EB1643B6B206EB75
:103B800003461B0CA24545F8046BEDDC53B1D8F895
:103B9000082092450ADA08EB8A020AF10101C8F806
:103BA00010105361404602B0BDE8F087D8F8041009
:103BB000484601930131FFF79BFFD8F8102008F128
:103BC0000C0102329200044600F10C00FFF738FFAE
:103BD000D8F80410D9F84C20019B52F82100C8F8FD
:103BE000000042F82180A046D5E700BF2DE9F84348
:103BF00048F639651F46C3F6E30503F10803064698
:103C00000C46904685FB0310DB17C3EB60000128D0
:103C100037DD012500216D000131A842FBDC304673
:103C2000FFF766FF089B43610123B8F1090F0146C6
:103C3000036122DD04F1090944444D4615F8013BB6
:103C40000A223046303BFFF785FFA5420146F5D1F9
:103C500009EB0804083C47450CDDC8EB0707E719EA
:103C600014F8013B0A223046303BFFF773FFBC4299
:103C70000146F5D10846BDE8F8830A344FF009083B
:103C8000E9E70021CBE700BF034600201A0C01D171
:103C90001B04102013F07F4F01D108301B0213F0DA
:103CA000704F01D104301B0113F0404F01D102309D
:103CB0009B00002B02DB5B0001D420207047013009
:103CC000704700BF0368024613F0070007D0D9070A
:103CD0001FD498071FD49B0802201360704799B225
:103CE00009B91B0C102013F0FF0F01D108301B0A7B
:103CF000190701D104301B09990701D102309B0833
:103D0000D90704D45B0801D120207047013013602B
:103D10007047002070475B0801201360704700BFA8
:103D200010B50C460121FFF7E3FE01224461026158
:103D300010BD00BF2DE9F04F0C460E6985B0156926
:103D40001746AE4204DA32463C462E460F4615462A
:103D5000A36806EB050861689845C8BF0131FFF705
:103D6000C7FE00EB880900F1140309F11409019062
:103D700000204B4503D243F8040B9945FBD807EBD1
:103D8000850504EB86061437143514341436AF4217
:103D900057D2019ACDF80890A946CDF80C8002F1CF
:103DA000180CA04657F8044BA0B2F0B14246ACF153
:103DB0000403002452F8041B1D681FFA81FA090C41
:103DC0001FFA85FB2D0C00FB0ABA00FB015154447D
:103DD00001EB1441A4B244EA01450C0C964243F8AD
:103DE000045BE7D81C6057F8044C240C21D05CF825
:103DF000041C4246634600250846B2F800A0000CA9
:103E000089B29B4604FB0A00451941EA054143F883
:103E1000041C53F8040B52F8041B1FFA80FA090C17
:103E200004FB01A101EB15410D0C9642E5D8CBF83E
:103E30000010B9450CF1040CB4D8DDF80890DDF899
:103E40000C80B8F1000F0BDD59F8043CA9F104090E
:103E50001BB105E059F8043D13B9B8F10108F9D1D7
:103E6000019B1846C3F8108005B0BDE8F08F00BF75
:103E700012F003032DE9F041144680460F462BD182
:103E8000A4101BD0D8F848602EB92EE0641015D0CD
:103E90003568B5B12E46E007F8D53946324640467A
:103EA000FFF748FFB7B17A686410D8F84C3053F880
:103EB0002210396043F822700746E9D13846BDE840
:103EC000F081314632464046FFF734FF3060064607
:103ED0000560E0E70746D9E7094A5D1E002352F86E
:103EE0002520FFF737FE0746CAE7404640F271211A
:103EF000FFF716FF0023C8F8480006460360CAE72C
:103F0000008300082DE9F84F93460A6988464FEA76
:103F10006B158B6805EB020A81460AF101064968B8
:103F20009E4203DD5B0001319E42FBDC4846FFF709
:103F3000DFFD002D024600F114040ADD00231F46B8
:103F4000013344F8047BAB42FAD102EB830303F163
:103F50001404D8F8107008F1140508EB870714371B
:103F60001BF01F0B21D0CBF120030021286800FAA1
:103F70000BF0014344F8041B55F8041BAF4221FA2F
:103F800003F1F3D8216009B10AF10206D9F84C30E7
:103F9000013ED8F804101046166153F82120C8F8E5
:103FA000002043F82180BDE8F88F55F8043BAF426C
:103FB00044F8043BEAD955F8043BAF4244F8043BCB
:103FC000F3D8E3E703460A69006930B4801A0FD1D9
:103FD000043203F1140592009B188918043304314C
:103FE00053F8042D51F8044DA24203D19D42F7D35A
:103FF00030BC7047944294BF01204FF0FF30F7E788
:104000002DE9F84F8B460446114658469146FFF776
:10401000D9FF051E61D0BCBF5B46CB462046B8BF6A
:104020009946DBF80410ACBF4FF000084FF00108D0
:10403000FFF75EFDDBF8107009F11405D9F81030B8
:104040000BF1140600240BEB870C09EB83090CF130
:10405000140C09F1140900F1140AC0F80C8056F888
:10406000048B534655F804AB32461FFA88F1091900
:104070001FFA8AFBCBEB01014FEA1A44C4EB184448
:1040800004EB214489B241EA04412414A94543F8D0
:10409000041B9A46E3D8B445984614D952F8045BF9
:1040A000A9B22D0C0C1905EB2445A4B244EA054134
:1040B0002C14944543F8041BF0D8F343634423F0D5
:1040C000030304334344043B21B953F8042D013F57
:1040D000002AFAD00761BDE8F88F20462946FFF78D
:1040E00007FD012345610361BDE8F88F0023C7F692
:1040F000F0730B40A3F15073002B02DD1946002032
:1041000070475B4200211B15132B0BDD322B02DDA8
:104110000123184670470122C3F1330302FA03F367
:10412000184670474FF40022002042FA03F170470E
:104130002DE9F84300F1140806698946043600EBBE
:1041400086063446374654F8045B2846FFF79CFD44
:104150000A28C0F12003C9F8003018DCB045C0F1CE
:104160000B0125FA01F738BF54F8084C47F07F5788
:1041700047F4401334BF24FA01F10021153005FA49
:1041800000F541EA050210461946BDE8F883002112
:10419000B04502D254F8081C371FB0F10B0418D0F8
:1041A00005FA04F5C0F12B00474545F07F5521FA8B
:1041B00000F645F4401545EA060388BF57F8045C4D
:1041C00001FA04F18CBF25FA00F0002040EA010258
:1041D000D9E745F07F550A4645F44013D3E700BFC1
:1041E0002DE9F041012182B01D461446FFF780FC05
:1041F000C5F30A5725F07F43A84623F4700306460B
:104200000FB143F480130193002C22D002A840F890
:10421000084D6846FFF756FD019B00282ED1009AF5
:104220007261002B0CBF01240224B3613461DFB939
:10423000089A06EB8403A0F2324010601869FFF779
:1042400023FD099BC0EB44101860304602B0BDE866
:10425000F08101A8FFF736FD01231C463361019B65
:1042600073612030002FE3D0089AA7F23348C0F1E1
:10427000350340441060099A1360E6E7C0F120015D
:10428000009A03FA01F123FA00F30A4301937261E1
:10429000C7E700BF2DE9F04383B08846694606466C
:1042A000FFF746FF0D46044601A94046FFF740FFD1
:1042B000D6F810C0D8F810E02F462646CEEB0C0EEC
:1042C0000B468946024680469DE80300C1EB000C80
:1042D0000CEB4E1EBEF1000FC3BF05EB0E5724467C
:1042E0003D46A3EB0E59DCBF12464B4620462946FD
:1042F00001F068FD03B0BDE8F08300BF172810B5DA
:1043000004460CDD00210020C3F6F07100230022DA
:10431000C4F2240301F02CFC013CF7D110BD034B87
:1043200003EBC004D4E9040110BD00BF0083000802
:1043300070B40139156902F114034E11013602EB14
:104340008505143500EB8606AB420CD2014653F8C6
:10435000044B9D4241F8044BF9D8AB1A153B23F0AE
:1043600003030433C018864204D9002340F8043BF9
:104370008642FBD870BC704730B44B11046900F121
:1043800014029C42B8BF234600DB11DC043300EB6F
:104390008300031D9A4218D253F8043C2BB9824281
:1043A00013D250F8043D002BF9D0012030BC7047E7
:1043B00011F01F01EAD000EB8304646924FA01F5CF
:1043C00005FA01F1A142F0D1E0E70020EEE700BFDD
:1043D00050EA010201D102207047D0F1010238BF3A
:1043E0000022B1F1004F08BF0028F4D021F00043B3
:1043F0004FF6FF71A3F58010C7F6DF71884201D830
:1044000004207047B3F5801F01D2032070470020BD
:10441000C7F6F070834214BF002002F0010070471D
:1044200080EA010212F0030F40F03A8010F003021C
:1044300020F0030021F0030150F804CB08BF51F82D
:10444000043B0DD082F003024FEAC2026FF07F43BB
:1044500023FA02F251F8043B4CEA020C43EA02034D
:10446000ACF101329C4501BF22EA0C0212F0803F00
:1044700050F804CB51F8043BF2D04FEA0C604FEAFD
:104480001C2C012828BFB0EB036F08BF1B0AF4D017
:1044900003F0FF034FEA1060A0EB0300704700BF7A
:1044A00010F0030F0AD010F8012B11F8013B012A7C
:1044B00028BF9A42F4D0A2EB030070474DF8045D88
:1044C0004DF8044D4FF0010242EA022242EA024254
:1044D00001F0030C21F0030150F8044B51F8045B88
:1044E000BCF1020F26D04BD824F07F4CBCEB152F2B
:1044F000A4EB020323EA04030DD113EAC21308BF9D
:1045000051F8045B0AD18CEA040CBCEB056F0CD1AA
:1045100050F8044BE8E74FEA15255CE033F07F43A1
:1045200052D10D784FEA146C55E04FEA146C05F047
:10453000FF0550E04FEA044CA4EB02034FEA1C4C89
:1045400023EA0403BCEB154F17D113EAC21308BFCB
:1045500051F8045B07D18CEA040CBCEB054F08D181
:1045600050F8044BE6E71B042ED10D884FEA144C9B
:1045700031E04FEA05454FEA144C4FEA15452AE071
:1045800004F0FF0CBCEB156FA4EB020323EA040359
:104590000DD113EAC21308BF51F8045B0AD18CEAAB
:1045A000040CBCEB052F0AD150F8044BE8E74FEAA6
:1045B000156510E014F0FF0F06D051F8045B4FEAC8
:1045C000142C25F07F4506E04FF000005DF8044B09
:1045D0005DF8045B70470CF0FF0205F0FF00012856
:1045E00028BF904204BF4FEA1C2C2D0AF3D0A2EB47
:1045F00000005DF8044B5DF8045B704700000000AC
:1046000020F0030110F00300C0F1000051F8043B5A
:1046100000F1040C4FEACC0C6FF000021CBF22FA30
:104620000CF213434FF0010C4CEA0C2C4CEA0C4CEE
:10463000A3EB0C0222EA030212EACC1204BF51F8E7
:10464000043B0430F4D013F0FF0F1FBF013013F40C
:104650007F4F013013F47F0F18BF0130704700BF48
:104660002DE9F04F83B09468924601900D4617688B
:10467000002C74D04FF0000B08688B685C46002C4F
:104680004CD09C421E4698464DD3B5F80CE01EF423
:10469000906F33D06B69621C29690EF4806E03EB56
:1046A0004303461A901903EBD3734FEA630981451C
:1046B0004A4638BF81460FFA8EF038BF4A46002876
:1046C00034D001981146FEF7B3FE8046002837D05B
:1046D00032462969FFF7B4F9AA8922F4906242F0C0
:1046E0008002AA8108EB0600C6EB0902C5F810801B
:1046F0002646A0462860C5F81490AA60424659464E
:1047000000F08EFEDAF80820AB682868141B9B1BAB
:10471000AB6040442860CAF8084004B3D7F800B042
:104720007C680837ABE72646A046E7E7019800F02B
:10473000D7FE80460028D5D10198296900F0A4FD54
:10474000019A0C234FF0FF3013600023AA8942F036
:104750004002AA81CAF80830CAF8043002E02046B4
:10476000CAF8044003B0BDE8F08F00BF2DE9F04F58
:10477000B3B009938B89059103F080030B901BB2B2
:104780001BB10B69002B00F0C384974F904622ACFD
:104790000DF1870C002326460394CCEB04040E9302
:1047A000CDF808C00693119415961793169398F8B0
:1047B0000030002B18BF252B00F0468308F10102C2
:1047C000154601322B78252B18BF002BF8D1B5EBFD
:1047D00008040FD0169A17990132C6F80080072AEC
:1047E000214474601692179100F3B3830836069B38
:1047F0001B1906932B78002B00F03983002205F15A
:10480000010813464FF0FF358DF84F200A920492AD
:1048100018F8012BA2F12001582900F23282DFE8BA
:1048200011F06701300230026201300230023002C2
:10483000300230023002D10081013002DE008301FB
:1048400030027C016B016B016B016B016B016B0131
:104850006B016B016B01300230023002300230021A
:104860003002300230023002300259003002300291
:1048700030023002300230023002300230023002A8
:10488000BA0030023002300230023002A50030029D
:1048900030024B013002300230023002300230026E
:1048A0003002300230023002E5005F003002300298
:1048B0003002E9015F0030023002E4013002F00111
:1048C000C000A5019E013002BC013002A9003002E7
:1048D00030020502DDF810C04CF0100CCDF810C00D
:1048E0008DF84F30049BD80640F18383099C2368E0
:1048F00004340994002BC0F289839DF84F200CBF2B
:10490000002001200121002DA2BF049C24F080047E
:104910000494002D18BF40F00100C0B2002800F040
:104920009582012900F04D8302290DF1870100F0E5
:104930003C8303F007000C4630300139DB0820705F
:10494000F7D1DDF810C023461CF0010F40F09B8327
:10495000039B1B1B07930895079DDDF820C0654549
:10496000B8BF6546002A51D001354FE0049B43F0A3
:1049700010030493049CE20600F19181049B5B0602
:1049800040F18D81099C0121238804340994181C6D
:1049900018BF012012E0DDF810C04CF0100CCDF86B
:1049A00010C0049B13F0100200F03983099C002111
:1049B000236804340994581A18BF012000228DF886
:1049C0004F20A0E7099CDDF824C024680CF1040204
:1049D000002C0A9480F24283644209920A94049C57
:1049E00044F00404049413E730840008099B012573
:1049F000002207951C1D09941B6818AC8DF84F20E8
:104A00008DF860304FF0000CCDF820C0049BDDF82D
:104A100010C013F002030C9318BF02351CF0840978
:104A200040F050810A9BC5EB030BBBF1000F40F334
:104A30004981BBF1100F179940F37A839E4B4FF0D9
:104A4000100ACDF83C80D8461094CB46169AA94659
:104A50000D930B9C059D04E0A8F11008B8F1100F10
:104A600018DD0132103186E880040836072A1692D4
:104A70001791F1DD2046294615AA22AEFFF7F0FD79
:104A8000002840F0FB81A8F110081799B8F1100F29
:104A9000169AE6DC4D46109CD946C346DDF83C80AC
:104AA00001320D9B072A5944169286E8080817918F
:104AB00000F3C882083607E1DDF810C08DF84F30EA
:104AC0007E4B1CF0100F0E9300F0BA80099C2368F7
:104AD00004340994049CE40700F1C080181C18BF3A
:104AE000012002216AE7049C44F0010404948FE64B
:104AF000002B08BF20238BE640460021A2F1300C9A
:104B000010F8012B01EB8101A2F130048046092C41
:104B10000CEB4101F2D90A917CE6049C44F080043C
:104B2000049475E62B2373E618F8012B2A2A00F06B
:104B30001583A2F13001002509293FF66BAE4046EE
:104B4000002510F8012B05EB850501EB4505A2F1C9
:104B5000300109298046F4D945EAE5755AE6DDF8C1
:104B600010C04CF0100CCDF810C051E6099B30225B
:104B7000DDF810C002211C1D09941B684CF0020CCA
:104B80004F4C8DF850207822181CCDF810C08DF8AD
:104B9000512018BF01200E9410E7DDF824C04FF01B
:104BA00000098DF84F900CF1040ADCF80040002C4D
:104BB00000F0C282002D2046C0F2968249462A4665
:104BC000FEF7EEFE002800F0C182001B9DF84F208A
:104BD000A8420790CDF824A0C4BF0795CDF8209037
:104BE0003FF7BAAECDF82090B6E6049C44F010042E
:104BF00004940DE6DDF810C04CF0400CCDF810C068
:104C000006E68DF84F30049BD90600F14782DDF8A7
:104C100010C01CF0400F00F04182099CDDF818C064
:104C2000236804340994A3F800C0C0E5DDF810C07F
:104C3000234C1CF0100F8DF84F300E947FF446AFCC
:104C4000DDF810C01CF0400F00F04582099C23885D
:104C500004340994049CE4077FF540AF1846022110
:104C6000002B3FF4ABAEDDF810C001208DF85120D1
:104C7000022130224CF0020C8DF85020CDF810C0EB
:104C80009CE68DF84F30002A00F0F18001250023CA
:104C90008DF8602018AC07958DF84F30B2E6DDF83E
:104CA00024C00121DCF800300CF1040CCDF824C044
:104CB000181C18BF012081E630840008B08A000863
:104CC000C48A00081799169A9DF84F3063B10132D3
:104CD0000DF14F0333600123072A194473601692C4
:104CE000179100F34A8108360C9B5BB1013214AB7B
:104CF00033600223072A194473601692179100F358
:104D000048810836B9F1800F00F0C980DDF820C075
:104D1000079BC3EB0C0ABAF1000F3CDDBAF1100F90
:104D2000DFF81C932DDDCDF820804FF0100BD0461E
:104D3000AA464D46A1460B9C04E0A8F11008B8F124
:104D4000100F18DD0132103186E820080836072AD6
:104D500016921791F1DD2046059915AA22AEFFF7AC
:104D60007FFC002840F08A80A8F110081799B8F15C
:104D7000100F169AE6DC4C46A9465546C246DDF8A9
:104D8000208001325144072A86E8000616921791C6
:104D900000F3E8800836079B0132072A3460194483
:104DA00016927360D8BF06F10803179100F3BB8019
:104DB000049C620734D50A98441B002C30DD102C6B
:104DC000169ADCBF9D480D9020DD9C481026DDF82A
:104DD0002C90DDF814A00D9002E0103C102C15DD95
:104DE000013210311F605E600833072A1692179156
:104DF000F3DD4846514615AAFFF732FC22AB0028E6
:104E00003CD1103C1799102C169AE9DC01320D9810
:104E1000072A2144169283E81100179100F321819B
:104E2000069B0A9CA542ACBF5B191B19069300297F
:104E300040F083800023169398F8003022AE002BB8
:104E400018BF252B7FF4BAAC4546D3E400297DD1A9
:104E5000049CE0075CBF079122AC7FF57CAD119B01
:104E60000DF18704079330238DF8873073E5179B86
:104E700023B10B9815AA0599FFF7F2FBDDF814C0D2
:104E8000069CBCF80C3003F040031BB2002B18BF8B
:104E90004FF0FF340694069833B0BDE8F08F0A9BBC
:104EA000C5EB030ABAF1000F7FF730AFBAF1100F6C
:104EB000DFF88C912CDDCDF830804FF0100BD04610
:104EC000AA464D46A1460B9C04E0A8F11008B8F193
:104ED000100F17DD0132103186E820080836072A46
:104EE00016921791F1DD2046059915AA22AEFFF71B
:104EF000B7FB0028C2D1A8F110081799B8F1100F1C
:104F0000169AE7DC4C46A9465546C246DDF8308085
:104F100001325144072A86E800061692179100F3E1
:104F2000EB800836F2E60B9815AA0599FFF798FB77
:104F30000028A3D1179922AB3AE70B9815AA059937
:104F4000FFF78EFB00283FF475AF97E7079022AC80
:104F500001E50B9815AA0599FFF782FB00288DD172
:104F600022AE44E40B9815AA0599FFF779FB0028B7
:104F700084D1179922AE169A0DE70B9815AA0599B8
:104F8000FFF76EFB00287FF479AF179922AE169ACF
:104F9000AAE60B9815AA0599FFF762FB00287FF493
:104FA0006DAF179922AE169AACE6DDF838C003F063
:104FB0000F000C4601391B091CF800002070F6D1C7
:104FC000C6E4092B57D94CF6CD490DF18700CCF634
:104FD000CC49A9FB03C104460138C90801EB810C87
:104FE000A3EB4C0C0B460CF130012170002BF0D1DF
:104FF000AEE4DDF810C01CF0400F63D0099CB4F99A
:10500000003004340994002BBFF677AC5B422D22AC
:10501000181C8DF84F2018BF0120012173E4DDF822
:1050200010C01CF0400141D0099C11462388043473
:105030000994181C18BF0120C0E400BF3084000888
:10504000408400080B9815AA0599FFF709FB002872
:105050007FF414AF179922AE169A35E60992FFF73E
:10506000D7BB0B9815AA0599FFF7FAFA00287FF429
:1050700005AF1799D4E6119C30338DF8873007942B
:105080000DF1870467E430283FF462AC03980C46C6
:10509000401A3021079003F8011C5CE4099C236846
:1050A00004340994069C1C60FFF781BBDDF824C022
:1050B000DCF800300CF1040CCDF824C0181C18BF2B
:1050C00001207BE4DDF824C0DCF800300CF1040C96
:1050D000CDF824C00EE4DDF824C0DCF800300CF17B
:1050E000040CCDF824C0F5E4CDF824A0FFF788FA2D
:1050F0009DF84F20079075E50B9815AA0599FFF7C5
:10510000AFFA00287FF4BAAE179922AE169AFDE5E1
:1051100040210192FEF78CF9059C019A20602061E4
:1051200050B3DDF814C04023CCF81430FFF72DBB8A
:10513000154B169A0D93B3E4062D28BF0625CDF81E
:1051400024A0079525EAE575104C5BE49DF84F20F7
:10515000CDF824A007950890FFF7FEBBDDF824C02A
:105160000CF10402DCF80050002DBFF677AF099275
:105170004FF0FF35FFF74CBB0B9C4FF0FF3306930E
:105180000C23236087E600BF30840008B085000848
:1051900010B501FB02F1FEF74BF9044670B150F86F
:1051A000042C22F00302043A242A1CD8132A98BFA4
:1051B000034605D800221A605A609A60204610BD46
:1051C00000211B2A016098BF00F108034160F1D95A
:1051D000242A8160C16011BF00F11003016100F158
:1051E00018034161E6E70021FBF77AFE204610BD77
:1051F000F8B50F46214D0446FEF772FCAB685E68B9
:1052000026F0030606F6EF73DF1B3F0B013F3F035B
:10521000B7F5805F07DB0021204602F081FDAB6817
:105220009B19984204D02046FEF75CFC0020F8BD94
:105230007942204602F074FD01300DD0104BF61B70
:10524000A968204646F001061A684E60D71B1F6009
:10525000FEF748FC0120F8BD0021204602F060FD69
:10526000AB68C21A0F2ADEDD42F001025A60054B1C
:105270001B68C01A024B1860D5E700BFAC0C0020B9
:10528000F4100020B4100020F8B50D4606460029A1
:1052900055D0FEF725FC55F8041CDFF868C1A5F1D0
:1052A000080421F00103E218DCF808005768904276
:1052B00027F0030764D011F00101576032D00021BC
:1052C000D0194068C00706D4DB199068002949D07E
:1052D000D268C260906043F00102E3506260E1B9BD
:1052E000B3F5007F2CD35A0A042A65D898093830C0
:1052F00041000CEB810C4349DCF80820624566D084
:10530000516821F003018B4202D292689445F7D193
:10531000D368E360A260D4609C603046BDE8F8408A
:10532000FEF7E0BB55F8080C0CF10805241A1B1811
:10533000A068A8423ED0E568C560A860C0E7F8BD97
:10534000DB080121DCF804000CEBC3029B1001FA1E
:1053500003F3E26091681843CCF80400A160CC60CC
:105360009460DAE7284DA842B2D1CCF8144043F05B
:105370000102CCF81040E060A0606260E350CCE72E
:10538000FF18CB0707D455F8083CE41AFF18A268A9
:10539000E368D3609A6047F0010363601B4BCCF86D
:1053A00008401B689F42B8D3194B30461968FFF775
:1053B0001FFFB2E7012183E702F15B004100142ADD
:1053C00097D9542A0CD8180B6E30410091E7012769
:1053D0004D688010134607FA00F005434D6098E7CA
:1053E000B2F5AA7F03D8D80B7730410081E740F2AD
:1053F00054518A4203D8980C7C30410079E7FC2153
:105400007E2076E7AC0C0020B40C0020B810002001
:10541000F01000200000000000000000000000006C
:105420008842F0B411D98C18A0420ED28518531EB0
:105430004AB121462A4611F8014D013BB3F1FF3F25
:1054400002F8014DF7D1F0BC70470F2A40D941EA6C
:1054500000039B073ED10C46034615462668103DC7
:105460001E6066685E60A6689E60E6681034DE6056
:1054700010330F2DF2D8A2F1100502F00F0425F021
:105480000F051035032C00EB0503294424D9A4F1A2
:10549000040C1D460C464FEA9C0C01EB8C070437AC
:1054A00054F8046BBC4245F8046BF9D10CF10104CB
:1054B00002F00302A40009191B19002AC3D0013904
:1054C0009A1811F8014F03F8014B9342F9D1BAE74A
:1054D0000346F2E70346F2E72246EEE7000000004B
:1054E0002DE9F04F0C4683B081461746002900F0A5
:1054F0002A8107F10B05FEF7F3FA54F8043C162D48
:10550000A4F1080A23F003067DD810214FF000080B
:105510000D46BD4238BF48F00108B8F1000F40F019
:1055200018818E4275DADFF8B4C30AEB0602DCF8A4
:105530000800904200F01281D2F804E02EF0010B36
:105540009344DBF804B01BF0010F1CBFC646724643
:1055500078D0DB0700F1D18054F8083CC3EB0A0B8C
:10556000DBF8043023F003039B19002A75D0824234
:1055700000F045810EEB030888456EDBD1685B4681
:105580009068321F242AC1608860DBF80C1053F841
:10559000080FC160886000F28E81132A9CBF1946F3
:1055A000204625D921681B2A98BF04F10800CBF8B2
:1055B00008106168CBF80C1098BF0BF1100117D9D7
:1055C000A168242A14BF04F1100004F11800CBF8DC
:1055D0001010E168CBF8141011BF0BF1180122690B
:1055E0000BF12001CBF8182004BF6269CBF81C2016
:1055F00002681C460A60DA4643684B6083688B6029
:10560000DBF8043006E025F0070529464FEAD57897
:105610007FE7B046C5EB08020F2A5AD80AEB08020A
:1056200003F0010343EA0803CAF80430536843F067
:105630000103536048462746FEF754FA384603B044
:10564000BDE8F08F2EF0030E0EEB0608884580DBD8
:10565000D1689268D1608A60DCE78B424DDB5F469F
:10566000DBF80C10321F57F8080F242AC16088603D
:1056700000F2B580132A9CBF3946204625D92168FF
:105680001B2A98BF04F10800CBF808106168CBF81A
:105690000C1098BF0BF1100117D9A168242A14BF70
:1056A00004F1100004F11800CBF81010E168CBF8F9
:1056B000141011BF0BF1180122690BF12001CBF876
:1056C000182004BF6269CBF81C2002683C4698464B
:1056D00090E70AEB050103F001038E181D4342F029
:1056E0000102CAF804504A6048467368083143F022
:1056F00001037360FFF7C8FD9CE739464846FDF794
:1057000097FE0746D8B154F8043CA0F1080123F0F5
:1057100001025244914200F0C880321F242A6AD804
:10572000132A9CBF0346224638D811681960516875
:10573000596092689A6048462146FFF7A5FD4846A1
:10574000FEF7D0F97AE7114603B0BDE8F04FFDF758
:105750006FBE0C230027C9F800306FE7426805F1DF
:10576000100822F0030E0EEB06024245B8BF0246B7
:10577000FFF6EFAE0AEB0503521B42F0010248466A
:105780005A60274654F8042CCCF8083002F0010285
:10579000154344F8045CFEF7A5F94FE723681B2A7C
:1057A00098BF04F1080203606368436098BF00F18A
:1057B0000803BAD9A368242A14BF04F1100204F123
:1057C00018028360E368C36011BF00F11003216910
:1057D00000F11803016104BF61694161A5E7214639
:1057E00038460193FFF71CFE019B3C46DA4698467B
:1057F000DBF804300EE72146FFF712FE9BE705F1C8
:1058000010020EEB03089045FFF627AF5F46DBF86A
:105810000C30321F57F8081F242ACB60996053D8E8
:10582000132A9CBF3B46224625D923681B2A98BFD2
:1058300004F10802CBF808306368CBF80C3098BF4D
:105840000BF1100317D9A368242A14BF04F1100226
:1058500004F11802CBF81030E368CBF8143011BF14
:105860000BF1180321690BF12003CBF8181004BFCA
:105870006169CBF81C101168196051685960926811
:105880009A600BEB0503C5EB080242F001024846A3
:105890005A60DBF80420CCF8083002F0010215430E
:1058A000CBF80450FEF71EF9C8E650F8042C22F09D
:1058B0000308B044AEE6214618461C46DA46FFF718
:1058C000AFFDDBF80430A5E638462146CDF804C02C
:1058D000FFF7A6FDDDF804C0D3E700BFAC0C002045
:1058E0004A1E08BF7047C0F02481884240F21681EA
:1058F000114200F01781B0FA80F3B1FA81F2A2EB05
:105900000303C3F11F0304A202EB03134FF00002D1
:105910009F4600BFAFF30080B0EBC17F00BF42EBFA
:10592000020228BFA0EBC170B0EB817F00BF42EB49
:10593000020228BFA0EB8170B0EB417F00BF42EBB9
:10594000020228BFA0EB4170B0EB017F00BF42EB29
:10595000020228BFA0EB0170B0EBC16F00BF42EBA9
:10596000020228BFA0EBC160B0EB816F00BF42EB29
:10597000020228BFA0EB8160B0EB416F00BF42EB99
:10598000020228BFA0EB4160B0EB016F00BF42EB09
:10599000020228BFA0EB0160B0EBC15F00BF42EB89
:1059A000020228BFA0EBC150B0EB815F00BF42EB09
:1059B000020228BFA0EB8150B0EB415F00BF42EB79
:1059C000020228BFA0EB4150B0EB015F00BF42EBE9
:1059D000020228BFA0EB0150B0EBC14F00BF42EB69
:1059E000020228BFA0EBC140B0EB814F00BF42EBE9
:1059F000020228BFA0EB8140B0EB414F00BF42EB59
:105A0000020228BFA0EB4140B0EB014F00BF42EBC8
:105A1000020228BFA0EB0140B0EBC13F00BF42EB48
:105A2000020228BFA0EBC130B0EB813F00BF42EBC8
:105A3000020228BFA0EB8130B0EB413F00BF42EB38
:105A4000020228BFA0EB4130B0EB013F00BF42EBA8
:105A5000020228BFA0EB0130B0EBC12F00BF42EB28
:105A6000020228BFA0EBC120B0EB812F00BF42EBA8
:105A7000020228BFA0EB8120B0EB412F00BF42EB18
:105A8000020228BFA0EB4120B0EB012F00BF42EB88
:105A9000020228BFA0EB0120B0EBC11F00BF42EB08
:105AA000020228BFA0EBC110B0EB811F00BF42EB88
:105AB000020228BFA0EB8110B0EB411F00BF42EBF8
:105AC000020228BFA0EB4110B0EB011F00BF42EB68
:105AD000020228BFA0EB0110B0EBC10F00BF42EBE8
