:020000040800F2
:1000000000400020D1010008F1020008F1020008C0
:10001000F1020008F1020008F1020008F1020008F4
:10002000F1020008F1020008F102000811030008C3
:10003000F1020008F1020008F1020008F1030008D3
:10004000F1020008F1020008F1020008F1020008C4
:10005000F1020008F1020008F1020008F1020008B4
:10006000F1020008F1020008F1020008C15C00087A
:10007000F15C0008215D0008515D0008815D000809
:10008000B15D0008E15D000811620008F10200089E
:10009000F1020008F1020008F1020008F102000874
:1000A000F1020008F1020008F1020008F102000864
:1000B000F1020008F102000861630008F102000883
:1000C000F1020008F1020008F1020008F102000844
:1000D000F102000821640008F1020008F1020008A2
:1000E000F1020008F1020008F1020008F102000824
:0400F000F102000811
:1001000010B582B005F07CFC00F0E2F90021224835
:1001100005F046FD4FF480604021C4F2020040F239
:10012000823206F035FB4FF48060802140F282324B
:10013000C4F2020006F02CFB0023C4F202031B6988
:10014000DA0724D41548002105F08AFC06F0F8F8F7
:100150000020C4F202002021032206F019FB002334
:1001600000930F484FF4987140220E4B002400F08A
:10017000B7FBC4F2020403E04FF4FA7000F000FC95
:100180002369DB07F8D5044801F072FFF4E7024861
:1001900001F06EFFD6E700BF9C1100205411002033
:1001A00048120020716800080000000000000000F4
:1001B000704700BF000000000000000000000000C9
:1001C000FEE700BF0000000000000000000000008B
:1001D00072B6374C84F30988022383F31488BFF383
:1001E0006F8F06F035FB334A334B9A420BD2D14323
:1001F000C91821F00301131F89184FF0553243F835
:10020000042F8B42FBD12D4AA2420CD22C49131D44
:10021000C91A21F00301131F89184FF0553243F812
:10022000042F8B42FBD12749274B99420BD2C8435D
:10023000C01820F00300254C043000231A595A50EE
:1002400004338342FAD1224A224B9A420AD2D14342
:10025000C91821F00301131F8918002243F8042F45
:100260008B42FBD1FFF7A4FF1B4D1C4B9D420BD2D1
:10027000EE43F618B608043D0136002455F8043F55
:1002800001349847B442F9D1FFF73AFF144D154BAA
:100290009D420BD2EE43F618B608043D0136002409
:1002A00055F8043F01349847B442F9D1FFF788FF6D
:1002B00000080020000000200004002000040020AE
:1002C0000308002000080020B0080020287600085D
:1002D000B008002078130020F4000008F4000008A3
:1002E000F4000008F4000008000000000000000016
:1002F000FEE700BF0000000000000000000000005A
:1003000000F05EFA00DF00BF000000000000000007
:10031000EFF30983203383F30988002383F31188E3
:10032000704700BF00000000000000000000000057
:1003300008B500224FF46D43CEF20003C0F2FA522A
:100340000021996007201021DA6000F099F80A2056
:100350004FF4007100F094F80B208021BDE80840B4
:1003600000F08EB800000000000000000000000057
:10037000202383F311884FF46D43CEF200035B68B2
:1003800013F4006319D0EFF30983A3F1200282F381
:100390000988124A4FF08070916943F8040C79B1D2
:1003A0001168D26989689268914294BF0022012243
:1003B00082B10B4A43F8082C704783F311887047C9
:1003C0001168D26989689268914234BF0022012283
:1003D000002AEED1034A43F8082C7047C8090020D0
:1003E00001030008040300080000000000000000F2
:1003F00008B5202383F3118800F0A2F8002383F3CB
:100400001188BDE80840FFF7B3BF00BF000000003F
:100410002DE9F04FC1F80CD0D0F80CD0BDE8F08F2A
:10042000002383F311882846A04700F009FB70479A
:1004300000F0030370B4DB00FF2505FA03F501FAB1
:1004400003F1012200F01F0302FA03F284084FF4C3
:100450006143CEF20003C03453F82460400926EA19
:1004600005050D4300F1600643F8245043F82620AB
:1004700043F8202070BC704700000000000000001E
:1004800000F00303DB00FF2202FA03F201FA03F19A
:1004900080084FF46D43CEF20003063010B453F8D9
:1004A000204024EA02020A4343F8202010BC70478F
:1004B000024B034ADB699A61FEE700BFC8090020CE
:1004C000A06800080000000000000000000000001C
:1004D00000B583B0FFF72CFF00F0EAF800F058F801
:1004E00001F0E6FA01F02CFB40F6B0004021C2F228
:1004F000000000F095F940F6C811C2F20001012297
:10050000C8610277002383F3118862B646F6A8001B
:10051000C969C0F600008861009340F6F80040F217
:10052000B143C021C0F60003C2F2000000F0D8F9C8
:1005300003B000BD0000000000000000000000004B
:1005400038B5104B9A69002A01DD013A9A61DA69DF
:100550000D4C116A236801311162E2680132A34235
:10056000E2600ED09D68013D9D6055B91A68D9685A
:100570001869DD6054602260884723689A68002A01
:10058000F4D038BDC8090020B809002000000000E0
:1005900040F6B813C2F200034FF0FF329A60002217
:1005A0005B601B60DA607047000000000000000024
:1005B00070B40D4E03613468C260A568A94204D9C5
:1005C0002468491BA5688D42FAD363688160B442F0
:1005D00043600460186018BFA36860601CBFC1EB73
:1005E0000301A16070BC7047B80900200000000042
:1005F0000368074A93421FBF996882688A189A6005
:100600004268002113600368C1605A60704700BFF0
:10061000B8090020000000000000000000000000F9
:100620000B4A81420346D26809D8824234BF002374
:1006300001238A422CBF184643F0010070478A42CA
:100640002CBF002001209A4238BF0020704700BF15
:10065000B8090020000000000000000000000000B9
:10066000037F0D2B11D8DFE803F020101007100BCB
:10067000101010101010100B436A9A6801329A6023
:1006800090E80C001A60026853604FF0FF3242623B
:1006900081680022054B02771B689A688A42FBD268
:1006A0005A6803604260106058607047C8090020B3
:1006B00040F6C813C2F2000300229A6014225B6065
:1006C0001B609A615B611B61704700BF0000000006
:1006D00000228168054B02771B689A688A42FBD228
:1006E0005A6803604260106058607047C809002073
:1006F00040F6C81330B4C2F200031A68D96914680E
:100700000877142098610125104663601C60DA6147
:10071000157730BCFFF77CBE000000000000000031
:1007200030B54B1C87B0054611D00B4C0B4AE36922
:1007300001A8FFF73DFF2846FFF7DAFF049B13B13E
:1007400001A8FFF755FFE369586A07B030BDFFF70E
:10075000CFFF014CF7E700BFC80900206106000881
:10076000F0B4154F0446FE698568B06800238542E1
:1007700061620CD823773B461B689A689542FBD987
:100780005A682360626014605C60F0BC7047337725
:100790003B461B689A689042FBD95A683360726086
:1007A0005E60012316602046FC61314623771423E6
:1007B000BB61F0BCFFF72CBEC809002000000000A0
:1007C0000E4A30B41068D169036814258C68136030
:1007D00095615A60D06101220277002203460A77B0
:1007E00000E01B689A68A242FBD25A680B604A601C
:1007F0001160596030BCFFF70BBE00BFC809002074
:10080000044B1A68DB6992689B689A4200D870476B
:10081000FFF7D6BFC809002000000000000000005C
:10082000F0B440F6C814C2F200046569002200F179
:100830002C06816000F128074FF0020C01640121B1
:100840000461456180F81CC060614277C2638263C5
:10085000026281778261286187620663C662F0BCAA
:10086000704700BF00000000000000000000000012
:100870002DE9F003243940F6C815C2F200054718E7
:10088000D5F814C0C7604350069B00267B6040F239
:100890002143C0F600033B620223904600F1280981
:1008A00000F12C02037701230561C0F80880C0F82D
:1008B00014C0044668614677C0F84080C66386630A
:1008C000066283778661CCF81000C0F82890026336
:1008D000C262BDE8F00370470000000000000000A5
:1008E00010B51C4682B0202383F311882346049C54
:1008F0000094FFF7BDFF00210446FFF731FF0023FE
:1009000083F31188204602B010BD00BF0000000034
:1009100010B5202383F31188084BDB691C6C9968A0
:100920008C4201D0814200D298601864FFF768FFC2
:10093000002383F31188204610BD00BFC8090020A2
:1009400010B52023044683F311880021FFF708FF28
:10095000002383F31188204610BD00BF0000000073
:10096000202383F31188427F002342F00402427760
:1009700083F31188704700BF0000000000000000F2
:1009800008B50146202383F311880620FFF7C8FE2F
:10099000002383F3118808BD000000000000000060
:1009A00008B5202383F31188054BD968411A02D07A
:1009B0000620FFF7B5FE002383F3118808BD00BFB2
:1009C000B809002000000000000000000000000046
:1009D00008B5202383F31188064B1A68DB699268F7
:1009E0009B689A4201D3FFF7EBFE002383F3118843
:1009F00008BD00BFC8090020000000000000000082
:100A000038B50E4BDC69254655F8283F6062AB428D
:100A100007D01A681846A262FFF75AFEA36AAB42D3
:100A2000F7D1637F9B0704D1636922691A61226948
:100A300053610E20BDE83840FFF75ABEC8090020B8
:100A4000202383F31188FFF7DBBF00BF0000000005
:100A500038B50446202383F31188037F0E2B07D07B
:100A6000084B826ADB6907201A60A362FFF740FE29
:100A7000656A002383F31188204600F019F82846A0
:100A800038BD00BFC80900200000000000000000C1
:100A9000202383F31188817F00230131817783F341
:100AA00011887047000000000000000000000000F6
:100AB0000146202383F31188827F0023013AD2B2BA
:100AC000827783F3118812B9037F0E2B00D0704711
:100AD000437F03F00303012B09D0022BF7D14369B5
:100AE0000269406C1A610A69536101F019B94369DE
:100AF00002691A610269536101F08AB800000000BE
:100B0000F0B583B00D4617461E4601F039F804468D
:100B100090B1202383F31188089C334629463A4636
:100B20000094FFF7A5FE0123437700210446FFF759
:100B300017FE002383F31188204603B0F0BD00BFE9
:100B40002DE9F04182B005460F4690461E4601F061
:100B5000CFF8044690B1202383F311886968434697
:100B60003A460096FFF784FE02234377456400214E
:100B70000446FFF7F5FD002383F31188204602B0F9
:100B8000BDE8F0810000000000000000000000004F
:100B9000202383F3118840F6C813C2F200031869BA
:100BA0000023827F0132827783F31188704700BF70
:100BB00010B5202383F31188074B04699C4209D0A8
:100BC000A37F0133A377002383F31188FFF770FF1E
:100BD000204610BD0024F6E7C809002000000000F0
:100BE000406000608160704700000000000000006D
:100BF00070B5856804460135002D81600BDC6FF00F
:100C0000010660680135436863601C60FFF760FDA2
:100C1000012D4662F5D170BD00000000000000000B
:100C200008B5202383F31188FFF7E2FFFFF7E8FD03
:100C3000002383F3118808BD0000000000000000BD
:100C4000826810B5013A002A0346826001DB002069
:100C500010BD074C0320E26953625968136051606C
:100C60005A600A60FFF744FDE369586A10BD00BF8F
:100C7000C809002000000000000000000000000083
:100C800008B5202383F31188FFF7DAFF002383F3ED
:100C9000118808BD000000000000000000000000F6
:100CA0000346806810B4421E002A0C469A6002DB9C
:100CB000002010BC704759B1074A0320D269536223
:100CC0005C6882E818005A60226010BCFFF728BDFB
:100CD00098604FF0FF30ECE7C809002000000000EA
:100CE00008B5202383F31188FFF7DAFF002383F38D
:100CF000118808BD00000000000000000000000096
:100D000008B50246202383F3118883680133002B42
:100D1000836003DD002383F3118808BD0068002190
:100D2000036813605A60FFF71BFDF3E70000000043
:100D3000826803460132002A826000DD7047026843
:100D40001168104619604B6000235362FFF7C0BC66
:100D500070B50C1E054611DD002601E0013C0DD0EA
:100D6000AB680133002BAB60F8DC286803682B60AC
:100D70005D60FFF7ADFC013C4662F1D170BD00BF84
:100D800010B5024682B0202383F3118883680133B3
:100D9000002B836019DD8B68013B002B8B6007DB28
:100DA000FFF72EFD0020002383F3118802B010BD51
:100DB0000B4A4B68D469032084E80A004C601C602D
:100DC0006162FFF795FC606AEDE7006803681360F5
:100DD0005A600191FFF77CFC002343620199DAE736
:100DE000C809002000000000000000000000000012
:100DF0000023406000608360704700BF0000000077
:100E0000F8B52F4A83680546D469002B51D0A168F4
:100E10009A68914206D91A7F9960042A31D0052A2E
:100E20001CD092B12B461B689D4203D09968A268E2
:100E30009142F8D25A6804202360626014605C60BA
:100E40006562BDE8F840FFF753BC93E80600116007
:100E500018461B685A60FFF73BFCE3E758681A68BE
:100E60005E6A02601F68324678601268964202D05D
:100E700090688842F9D251681A6059600B605360DB
:100E8000D0E758681A685E6A02601F683246786068
:100E90001268964212D090688842F9D251681A605E
:100EA00059600B605360B368A1689A688A42B2D3F4
:100EB000B8E7E36B8460C360E063F8BD3246EDE7FA
:100EC000C809002000000000000000000000000031
:100ED00008B5202383F31188FFF792FF002383F3E3
:100EE000118808BD000000000000000000000000A4
:100EF0000246202383F31188836800201BB100235E
:100F000083F311887047044B0120DB69D96B936030
:100F1000D160DA63F3E700BFC809002000000000D9
:100F2000154A38B5D069202383F31188C46B25682E
:100F3000E368A542C3631CD0016C4BB11A689A42A6
:100F400003D09268914238BF1146DB68002BF5D17F
:100F50002B68EA6B8160236028465C600021A560F5
:100F6000E260EC63FFF7FCFB002383F3118820466B
:100F700038BD0023A360F7E7C80900200000000087
:100F800038B5124BD869C46B2568E368A542C363C2
:100F900018D0016C4BB11A689A4203D09268914202
:100FA00038BF1146DB68002BF5D12B68EA6B8160F6
:100FB000236028465C60A560E260EC63FFF788FB75
:100FC000204638BD0023A360204638BDC809002054
:100FD000124A70B52023D46983F31188E36BC3B13F
:100FE00000261A68D9689A42E163104608BF9E60DD
:100FF00008D01168D56B19604B609A60DD60D363CF
:10100000FFF766FBE36B002BEBD1236CA360FFF7CC
:10101000F7FB002383F3118870BD00BFC8090020CF
:1010200040600060704700BF00000000000000004A
:1010300008B50246202383F311880068904205D04A
:101040000368002113605A60FFF78AFB002383F3D3
:10105000118808BD00000000000000000000000032
:1010600008B503460068984206D002681A605360CB
:10107000FFF72EFB0023436208BD00BF0000000005
:1010800038B504460068A0420AD06FF00105036835
:1010900023605C60FFF71CFB45622068A042F6D12C
:1010A00038BD00BF0000000000000000000000008C
:1010B00008B5202383F31188FFF7E2FFFFF7A0FBB9
:1010C000002383F3118808BD000000000000000029
:1010D000F8B5104B0546DC69FFF752FF2E46074670
:1010E00065622B4603E09968A268914210D31B68A1
:1010F0009D42F8D17368266063601C6074600520AF
:10110000FFF7F6FA646A3846FFF77AFE2046F8BD24
:101110001E46EFE7C80900200000000000000000A4
:1011200008B5202383F31188FFF7D2FF002383F350
:10113000118808BD00000000000000000000000051
:101140002DE9F04106468846FFF71AFF0E4A07468A
:10115000D269334656621B689E4203D09D689468EC
:10116000A542F8D25C68052082E81800414622605A
:101170005A60FFF7D5FA431C044602D03846FFF701
:101180003FFE2046BDE8F081C809002000000000B5
:1011900008B5202383F31188FFF7D2FF002383F3E0
:1011A000118808BD000000000000000000000000E1
:1011B00030B4202383F3118840F6C813C2F2000331
:1011C000DC69056800230D6001604C608A6083F370
:1011D000118830BC704700BF000000000000000014
:1011E000202383F31188024600E01A4613688342E5
:1011F00003D09942F9D10B681360002383F311885F
:10120000704700BF00000000000000000000000068
:1012100010B4202383F3118840F6C813C2F20003F0
:10122000D96900238A6B22EA00048C6383F3118856
:10123000104010BC704700BF00000000000000001C
:10124000202383F3118840F6C813C2F20003DA6941
:101250000023916B0843906383F31188704700BFAC
:1012600008B5826B037F1143082B81630BD0092BD8
:1012700000D008BD436A19408B42FAD1FFF728FA23
:101280000023436208BD436A1942F7D108BD00BF7D
:1012900008B5202383F31188FFF7E2FFFFF7B0FAC8
:1012A000002383F3118808BD000000000000000047
:1012B00070B504680546A0420E4607D0A168606874
:1012C0003143FFF7CDFF2468A542F7D170BD00BFC1
:1012D00008B5202383F31188FFF7EAFFFFF790FAA0
:1012E000002383F3118808BD000000000000000007
:1012F000F8B50D46074689B10024012601E0013406
:1013000065B106FA04F32B42F9D057F824202046A1
:1013100025EA030501349047002DF2D1F8BD00BF46
:1013200038B50D4B0546DC69202383F31188A36B88
:1013300010EA030206D160620820FFF7D9F9A36B17
:1013400005EA03025042104023EA0003A36300238E
:1013500083F3118838BD00BFC809002000000000D9
:1013600038B50B4B0546DC69202383F31188A36B4A
:10137000184006D108206562FFF7BAF9A36B05EAA9
:10138000030023EA0003A363002383F3118838BD1D
:10139000C80900200000000000000000000000005C
:1013A00038B50C4B0446DD69202383F31188AB6B01
:1013B00000EA0302824204D068620920FFF798F92C
:1013C000AB6B23EA0403AB63002383F3118820464D
:1013D00038BD00BFC8090020000000000000000068
:1013E000114B70B5DE690546202383F31188B36B7A
:1013F00010EA03040ED121B9234683F31188204655
:1014000070BD70620820FFF78BF90028F4DBB36B26
:1014100005EA03046242144023EA0403B363002391
:1014200083F31188204670BDC80900200000000029
:10143000104B70B5DE690446202383F31188B26B2C
:1014400014EA02050ED121B92B4683F311882846F0
:1014500070BD08207462FFF763F90028F4DBB26BFB
:1014600004EA020522EA0502B263002383F311882D
:10147000284670BDC80900200000000000000000E0
:1014800038B5134B0446DD69202383F31188AA6B1A
:1014900004EA0203A3420DD029B90B4683F3118855
:1014A0000C46204638BD09206C62FFF739F9002848
:1014B00008DBAA6B22EA0402AA63002383F31188E3
:1014C000204638BD002383F311881C46F8E700BF8F
:1014D000C80900200000000000000000000000001B
:1014E00070B50E4BDC69202383F3118800F12C05C5
:1014F0006562067F036B0C2E256061636360046385
:101500001C6007D00A20FFF7F3F8606A002383F31A
:10151000118870BDFFF7DCF8F4E700BFC8090020B0
:1015200010B5202383F311880B4CE3691A4652F857
:101530002C0F904208D00168D9624A600B220277D2
:10154000002383F3118810BD0C20FFF7D1F8E36965
:101550001A4652F82C0FEEE7C809002000000000E0
:1015600008B5202383F31188FFF7FAF8002383F3EB
:10157000118808BD0000000000000000000000000D
:1015800038B50B46044601EB820500F11C001146FC
:10159000E360A36084E82800FFF722FB04F1100059
:1015A0000021BDE83840FFF71BBB00BF0000000072
:1015B00010B52023044683F3118803684168E36073
:1015C000C91AA360891000F11C00FFF711FB04F198
:1015D00010000021FFF70CFBFFF712F9002383F343
:1015E000118810BD00000000000000000000000095
:1015F00070B504460E4600F11C001146FFF750FB83
:10160000054678B9A368626843F8046B9342A36007
:1016100028BF236804F1100028BFA360FFF788FBF0
:10162000FFF7EEF8284670BD000000000000000043
:1016300008B5202383F31188FFF7DAFF002383F333
:10164000118808BD0000000000000000000000003C
:10165000426A10B5002A0FDD83684468013A42628D
:1016600043F8041BA342836024BF036883601030E7
:10167000FFF75EFB002010BD4FF0FF3010BD00BF34
:1016800070B504460E4600F11C001146FFF708FB3A
:10169000054660B9E3682268043B9342E36008D3DF
:1016A00004F110001E60FFF743FBFFF7A9F828467E
:1016B00070BD6368043BE360F2E700BF0000000018
:1016C00008B5202383F31188FFF7DAFF002383F3A3
:1016D000118808BD000000000000000000000000AC
:1016E000426A10B5002A10DDC3680468043B013A61
:1016F000A3424262C36002D24368043BC36010301D
:101700001960FFF715FB002010BD4FF0FF3010BD32
:1017100070B504460E4600F110001146FFF7C0FAFE
:10172000054678B9E368626853F8041B04F11C00AD
:1017300093423160E36024BF2368E360FFF7F8FA67
:10174000FFF75EF8284670BD0000000000000000B2
:1017500008B5202383F31188FFF7DAFF002383F312
:10176000118808BD0000000000000000000000001B
:10177000826910B5002A10DDC368013A826153F80E
:10178000044B42680C609342C36024BF0368C3608B
:101790001C30FFF7CDFA002010BD4FF0FF3010BD18
:1017A00010B4024659B1084B0D20DB695A625468E7
:1017B00083E814005360236010BCFEF7B1BF4FF004
:1017C000FF3010BC704700BFC809002000000000B7
:1017D00010B48A1800244060006084604161816117
:1017E000C1600261C36110BC704700BF000000000F
:1017F00038B50446C36800686361A3610023A04252
:10180000A3600AD06FF00105036823605C60FEF7F7
:101810005FFF45622068A042F6D138BD000000009D
:10182000426908B5034680698242986818D0013041
:10183000986002F8011B19695A618A4228BFDA6868
:10184000186828BF5A61984208D002681A6053602D
:10185000FEF73EFF00234362184608BD002008BD86
:101860000028E4D06FF0030008BD00BF00000000B6
:1018700070B5202304460E4683F31188C36903B173
:101880009847A568204631463DB9FFF789FF0028F3
:10189000F7DA2B4683F3118870BDA369013DA5607B
:1018A00013F8010B2269A361934224BFE368A3618B
:1018B000002383F3118870BD0000000000000000C9
:1018C0002DE9F0471E460446C769202383F311889B
:1018D0004FF0000801F1010901EB020A0FB12046A7
:1018E000B847A568204631464DB9FFF759FF002893
:1018F000F7D02B4683F311884046BDE8F087A369F3
:10190000013DA56013F8012B09F8012C2269A361A0
:10191000934224BFE368A361002383F31188D14578
:1019200008F10108E8D0202383F3118809F10109A7
:10193000D4E700BF0000000000000000000000002D
:1019400010B48C1840600060826041618161C160A8
:101950000461C36110BC704700000000000000007B
:1019600038B502690446C3680068D21AA0426361B0
:10197000A361A2600AD06FF00105036823605C6078
:10198000FEF7A6FE45622068A042F6D138BD00BF32
:10199000F8B504460F461646202383F31188A56840
:1019A000204631463DB9FFF7FBFE0028F7DA2B460B
:1019B00083F31188F8BD6369013DA56003F8017BDD
:1019C00022696361934224BFE3686361E3690BB1F9
:1019D00020469847002383F311881846F8BD00BFBE
:1019E0004169826910B591420346816816D0013180
:1019F000996012F8014B19699A618A4228BFDA6826
:101A0000186828BF9A61984206D002681A6053602D
:101A1000FEF75EFE00234362204610BD0029E6D09B
:101A20006FF0020010BD00BF0000000000000000C9
:101A30002DE9F0479A46044688461646D0F81C9091
:101A4000202383F311880027A56820466B1EEDB183
:101A5000A36018F8013B656905F8013B23696561DE
:101A60009D4224BFE3686361B9F1000F00D0C8470D
:101A7000002383F311880137013E10D0202383F324
:101A80001188A56820466B1E002DE1D120465146E5
:101A9000FFF786FE0028D7D02B4683F311883846FF
:101AA000BDE8F0870000000000000000000000001A
:101AB00044F20001084840F6EC1240F6E813C2F286
:101AC0000001C2F2000220F00700C2F2000321F080
:101AD00007011060196070477F13002000000000AC
:101AE000202383F31188094B09491A6809680730D4
:101AF00020F00700891A88429ABF10181860002247
:101B0000002383F311881046704700BFEC090020C2
:101B1000E8090020000000000000000000000000B4
:101B200040F6E81240F6EC13C2F20002C2F20003E3
:101B300010681B68C01A7047000000000000000019
:101B400040F6F013C2F2000341F6E1210022C0F694
:101B5000000103F1100019609A60DA60FFF748B9DC
:101B6000002303608160C360083A10300B604A6054
:101B7000FFF73EB900000000000000000000000078
:101B8000F8B51F4E0731002818BF064606F11000B1
:101B900021F0070506F10804FFF79AF900E01C465A
:101BA0002368E3B15A689542F9D805F108019142DA
:101BB00012D84FF6F870CFF6FF70401B82181868E5
:101BC0005F1858507A6027605D601C4644F8086BC7
:101BD000FFF7A6F92046F8BD1A682260F5E7FFF77F
:101BE0009FF933684BB105F10800984728B100F11F
:101BF0000804066045602046F8BD0024EAE700BFFF
:101C0000F0090020000000000000000000000000BB
:101C100070B5064650F8080CA6F1080400F1080556
:101C20001030FFF755F92B46AB421A6801D0A3429A
:101C300002D21AB1944201D31346F5E756F8041CB8
:101C400046F8082C1C6001F1080256F8085CA01840
:101C5000A84209D05A6802F1080159188C4211D0E3
:101C6000BDE87040FFF75CB94068A2580918083118
:101C700046F8041C46F8082C5A6802F10801591865
:101C80008C42EDD156F8040C56F8081C1218083294
:101C900083E80600E4E700BF000000000000000049
:101CA00038B50E4C0D46002818BF044604F110004C
:101CB000FFF70EF9A3686BB10022144658681B6841
:101CC00012180134002BF9D105B12A60FFF728F969
:101CD000204638BD1A461C46F6E700BFF009002032
:101CE000073121F0070100230360416082607047E3
:101CF00008B50246202383F31188006828B10368E1
:101D00001360002383F3118808BD9368002BF8D07B
:101D100050689847F5E700BF000000000000000091
:101D2000202383F31188026800230A60016083F393
:101D30001188704700000000000000000000000053
:101D400041F20803C2F2000301221A60704700BF8B
:101D500070B50D4E4C2430682D2103684FF0FF32D2
:101D60001B699847013C084DF5D128680D2103688F
:101D70004FF0FF321B69984728680A2103684FF02B
:101D8000FF321B69984770BD3C1000200000000026
:101D900070B584B0002828D00DF101054CF6CD4671
:101DA0002B46CCF6CC46A6FB0012D20802EB8201F1
:101DB000A0EB41013031C9B21C4603F8011C1046AA
:101DC0000133002AEFD16B469C420CD90B4E02E046
:101DD00014F8021C013C30684FF0FF3203681B69A5
:101DE0009847AC42F4D104B070BD044B3021186860
:101DF0004FF0FF3203681B699847F4E73C1000205E
:101E000038B5017859B1064D044628684FF0FF32C5
:101E100003681B69984714F8011F0029F5D138BDE4
:101E20003C10002000000000000000000000000046
:101E300038B501780D4D51B1044628684FF0FF3296
:101E400003681B69984714F8011F0029F5D1286819
:101E50000D2103684FF0FF321B69984728680A215B
:101E600003684FF0FF321B69984738BD3C100020D3
:101E7000202383F3118841F20C02C2F200021168A0
:101E8000002301F8010B116083F31188704700BF34
:101E900041B9054A01231360044A1360044A1060E3
:101EA00018467047002070470410002010100020D2
:101EB00000100020000000000000000000000000F2
:101EC000F0B40F4E0F4F35683B4604E011F8014B5C
:101ED0001278A24209D19D421A4603F10103F5D8B6
:101EE0000B7813B93760184607E0074A01231360DF
:101EF000064A1360064A10601846F0BC704700BFDF
:101F00000C100020401000200410002010100020B1
:101F10000010002000000000000000000000000091
:101F200010B5044608461146FEF77AFB40B9054A4B
:101F300001231360044A18461360044A146010BD5C
:101F4000002010BD04100020101000200010002000
:101F500038B5064C04F1140554F8043F18460BB18B
:101F6000FEF7FEFCAC42F7D138BD00BF24100020C4
:101F700070B5074C002604F1140554F8043B1846CC
:101F80001BB1FEF765FD44F8046CAC42F5D170BDA1
:101F900028100020000000000000000000000000E9
:101FA0004FF47A7303FB00F0134A44F6D353A0F5C1
:101FB0007A7110B4C1F26203D469A3FB0123226ACF
:101FC000501C00EB93118A42236A0AD28B422CBF29
:101FD00000200120934238BF00200028F3D110BC1C
:101FE0007047934234BF002001208B4238BF40F03D
:101FF00001000028E7D1F2E7C80900200000000036
:1020000008B50120FEF7BCFC40F6B813C2F200038D
:10201000D86808BD000000000000000000000000BB
:1020200041F2080310B5C2F2000300241C60202313
:1020300083F311884FF47A7303FB00F044F6D35313
:10204000A0F57A70C1F26203A3FB002341F21400F1
:10205000990941F641522346C2F200000131C0F60F
:102060000002FEF7A5FA234683F3118810BD00BFD6
:102070002DE9F04F9F4C83B020609F48FFF7D8FEBA
:102080009E48FFF7D5FE9E4D9E48FFF7D1FE2A21C0
:1020900020684FF0FF3203681B69984715F8011F4D
:1020A0000029F5D19848994DFFF7C2FE2A212068F2
:1020B0004FF0FF3203681B69984715F8011F00298C
:1020C000F5D19348934DFFF7B3FE2A2120684FF0D6
:1020D000FF3203681B69984715F8011F0029F5D1E5
:1020E0008D488E4DFFF7A4FE2A2120684FF0FF3265
:1020F00003681B69984715F8011F0029F5D1884826
:10210000884DFFF795FE2A2120684FF0FF320368C3
:102110001B69984715F8011F0029F5D18248834DA6
:10212000FFF786FE2A2120684FF0FF3203681B6903
:10213000984715F8011F0029F5D17D487D4DFFF71F
:1021400077FE2A2120684FF0FF3203681B69984709
:1021500015F8011F0029F5D17748784DFFF768FE83
:102160002A2120684FF0FF3203681B69984715F851
:10217000011F0029F5D172480091FFF759FE5E4812
:10218000FFF756FE00996F4B41F21002C2F20002B7
:102190006D4F6E4EDFF8E491019311608A460AF1AB
:1021A000010A4FF0000857F8043B002B00F0938021
:1021B000674DFFF7CDFD2D2120684FF0FF320368FA
:1021C0001B69984715F8011F0029F5D15046FFF704
:1021D000DFFD484B2E2118684FF0FF32036808F1ED
:1021E00001081B6998475B4D4046FFF7D1FD202150
:1021F00020684FF0FF3203681B69984715F8011FEC
:102200000029F5D157F8043C1D68297849B12068A8
:102210004FF0FF3203681B69984715F8011F00292A
:10222000F5D14D48FFF704FEC820FEF7A9FB4B4A45
:1022300057F804BC0023136053609360D3601361AC
:10224000474DDBF80420C6F800902B6002B19047A0
:10225000DBF80C309847DBF8083003B19847FFF7FC
:1022600087FE2B68002B00F0A6803E4D2D212068B4
:102270004FF0FF3203681B69984715F8011F0029CA
:10228000F5D1394B394D1868FFF782FD20212068C0
:102290004FF0FF3203681B69984715F8011F0029AA
:1022A000F5D133684B4588BF314D0CD9206815F8FE
:1022B000011C03684FF0FF321B69984733682A46B8
:1022C00001359A42F2D32B48FFF7B2FD57F8043B91
:1022D000002B7FF46DAF019B53F8047F0193002F17
:1022E0007FF45DAFFFF734FD234D0348FFF7A0FDFA
:1022F000462145E03C10002068720008D0680008C4
:10230000F0680008EC680008506900085869000887
:102310006C6900088469000898690008A4690008CD
:10232000B8690008C0690008D4690008E0690008BD
:10233000F46900080C6A0008206A0008486A00086E
:102340005C6A0008906A0008006B00080C1000200E
:1023500004690008706A0008146900082810002049
:10236000041000201869000800100020746A00089A
:102370004110002030690008786A000840100020F1
:1023800020684FF0FF3203681B69984715F8011F5A
:102390000029F5D141F21002C2F20002136873B9AC
:1023A0000948FFF745FD41F21003C2F20003186827
:1023B00003B0BDE8F08F0548FFF73AFDF3E60448A7
:1023C000FFF736FDEFE700BF4069000834690008F9
:1023D0004869000800000000000000000000000044
:1023E000F8B54D4EF3699C68651C2846FEF790FAD7
:1023F000021B5142514107460120FFF749FD00B140
:10240000F8BDF369022099686B1A59425941FFF7E8
:102410003FFD0028F4D13846FEF77AFAB5EB000C00
:10242000DCF1000151EB0C010320FFF731FD002826
:10243000E6D1F36904209968B1EB040EDEF10001E6
:1024400051EB0E01FFF724FD0028D9D1202383F39F
:102450001188F269034691680231916083F3118813
:10246000F369A71C99680520CA1B51425141FFF727
:102470000FFD0028C4D12846FEF74AFA031B594233
:1024800059410620FFF704FD0028B9D1F369072060
:102490009968B7EB010CDCF1000151EB0C01FFF77F
:1024A000F7FC0028ACD1F3690820196CB5EB010EDC
:1024B000DEF1000151EB0E01FFF7EAFC00289FD18D
:1024C000E71C3846FEF724FA281A41424141092008
:1024D000FFF7DEFC002893D1F3690A2099687A1A85
:1024E00051425141FFF7D4FC002889D1F3690B20F8
:1024F000196C7B1A59425941FFF7CAFC00287FF436
:102500007FAF202383F31188F2690346946014643B
:1025100083F3118874E700BFC809002000000000A1
:10252000F0B540F6C817C2F20007FB6946F6B006E0
:102530009A6842F2017546F6203183B0C0F6000673
:10254000C0F60005C0F60001043A2B460091706801
:102550004FF49871FEF7C4F941F22804FB69C2F206
:1025600000049A683168606046F63430C0F60000B6
:10257000053A2B46009008464FF49871FEF7B0F9E3
:10258000FB6931699A68206046F62430C0F6000085
:10259000013A2B46009008464FF49871FEF7A0F9D7
:1025A000FB69F1689A68206146F62830C0F60000A1
:1025B0002B460090023A08464FF49871FEF790F9C6
:1025C0002023E06083F31188FB6946F62C319A687A
:1025D000C0F600012B460091B0684FF49871033AA1
:1025E000FEF746F9A060002383F31188A068FEF788
:1025F000A7F9FFF7BDFC46F630310120C0F6000117
:1026000003B0BDE8F040FFF75BBC00BF0000000076
:102610002DE9F04140F6C818C2F20008D8F81C3085
:1026200046F6B0069A6842F2017546F6343482B036
:10263000C0F60005C0F60006C0F60004053A2B46B9
:10264000009430684FF49871FEF74AF941F228047B
:10265000D8F81C30C2F200049A687768206046F609
:102660002030C0F60000043A2B4600904FF49871D9
:102670003846FEF735F9D8F81C30B7689A686060BC
:1026800046F62C30C0F60000033A2B4600904FF47B
:1026900098713846FEF724F9D8F81C30F7689A6824
:1026A000A06046F62830C0F60000023A2B460090A3
:1026B0004FF498713846FEF713F9D8F81C30366994
:1026C0009A68E06046F62430C0F600004FF4987136
:1026D000013A2B4600903046FEF702F92061FFF7E1
:1026E00047FC46F630310120C0F6000102B0BDE8DB
:1026F000F041FFF7E5BB00BF000000000000000054
:1027000008B50078FFF7B4FB002008BD000000000A
:1027100038B51C4DFFF774FCEC686420FEF730F907
:10272000012004F1640104F16502FFF7F9FB00B137
:1027300038BDEC686420FEF723F9022004F164013F
:1027400004F16502FFF7ECFB0028F1D1EC684FF4CF
:102750007A70FEF715F9032004F57A7104F2E93274
:10276000FFF7DEFB0028E3D1EC6804F1640528469E
:10277000FEF716F90420294604F16502BDE8384049
:10278000FFF7CEBBB80900200000000000000000E9
:1027900040F60000C2F200000021FEF721BA00BF9F
:1027A00040F60000C2F200000021FEF719BA00BF97
:1027B00040F60000C2F200000021FEF711BA00BF8F
:1027C00000B587B0002103A8FEF70AFA002103A88C
:1027D000FEF726FA059901200029CCBF002101212E
:1027E000FFF756FB08B107B000BD2F4B03A8DB690C
:1027F0004FF498719A6800902C48013A2C4B00686D
:10280000FEF76EF82B4B186003A8FEF739FA05990E
:1028100002200029CCBF00210121FFF739FB00284D
:10282000E1D1202383F31188059B002B34DDFDF7D4
:10283000E7FF002383F31188059903209942D4BF51
:1028400000210121FFF724FB0028CCD105990420A9
:102850004A1E51425141FFF71BFB0028C3D12023E0
:1028600083F31188059B002B1ADDFDF7C9FF0023B8
:1028700083F31188059903209942D4BF00210121D7
:10288000FFF706FB0028AED1059905204B1E5942E3
:102890005941FFF7FDFAA6E703A8FEF749FAC6E794
:1028A00003A8FEF745FAE0E7C8090020B068000871
:1028B000C1280008281000200000000000000000CF
:1028C00008B5202383F311888368002B06DDFDF70C
:1028D00097FF002383F31188184608BDFEF728FAF6
:1028E000F5E700BF0000000000000000000000004D
:1028F00010B540F60004C2F200042046FEF7C0F90D
:102900002046FEF7FDF9002010BD00BF00000000CA
:1029100010B5044640F60000C2F20000FEF7B0F920
:102920002078FFF7A5FA002010BD00BF00000000CE
:1029300008B53220FEF724F8202383F3118840F6EF
:102940000000C2F20000FEF7F3F9FDF759FF002383
:1029500083F31188184608BD000000000000000045
:102960002DE9F043DFF84081454CD8F81C3027684A
:102970009A68444E85B04FF498710532424B0096E8
:102980003846FDF7ADFFD8F81C30404D9A686368B3
:1029900028603F4803934FF4987101323A4B0090FE
:1029A0000398FDF79DFFA268D8F81C3003929A683F
:1029B000686038484FF498710332334B00900398A5
:1029C000FDF78EFFE268D8F81C3003929A68A86081
:1029D00031484FF4987104322B4B00900398FDF767
:1029E0007FFFD8F81C3024699A68E8602B484FF4C0
:1029F00098710232244B00902046FDF771FF284C5D
:102A000028612046FEF77CF92046FEF779F920463A
:102A1000FEF776F92046FEF773F92046FEF770F9C7
:102A2000FFF7A6FA01201F49FFF74AFA814610B1C5
:102A300005B0BDE8F083D8F81C3038469A684FF4EA
:102A4000987100960532104BFDF74AFF202328604D
:102A500083F3118802212046FEF77AF94B4683F36F
:102A60001188FFF785FAA1680220B1F1010EDEF1AD
:102A7000000151EB0E0105B0BDE8F043FFF708BAC5
:102A8000B0680008246B00081129000828100020F5
:102A9000286B00082C6B0008206B0008346B0008C2
:102AA00000080020306B0008C8090020000000006A
:102AB00010B5224B82B0DB6900209A680090204854
:102AC00001324FF498711F4B0068FDF709FF1E4C4F
:102AD0001E4B214618602046FEF752F9216801205E
:102AE0000B1B59425941FFF7D3F908B102B010BD91
:102AF000A1680220D1F1010138BF0021FFF7C8F918
:102B00000028F3D121462046FEF73AF92168032038
:102B1000B1EB040CDCF1000151EB0C01FFF7B8F94B
:102B20000028E3D1A1680420D1F1010138BF0021C0
:102B300002B0BDE81040FFF7ABB900BFC8090020E4
:102B4000B0680008F12800080008002028100020C4
:102B500070B54C4C002182B02046FEF7C1F8B0F1B0
:102B6000FF33594259410120FFF792F908B102B0F1
:102B700070BD21680220B1EB040CDCF1000151EBC7
:102B80000C01FFF785F90028F1D1A1680320D1F1EC
:102B9000010138BF0021FFF77BF90028E7D13A4B4C
:102BA0004FF49871DB699A6800903848013A384BC5
:102BB0000068FDF795FE374B4FF4FA711860204618
:102BC000FEF78EF80546FFF7D3F90420D5F1010191
:102BD00038BF0021FFF75CF90028C8D12168052023
:102BE000B1EB040EDEF1000151EB0E01FFF750F9DD
:102BF0000028BCD1A1680620D1F1010138BF002115
:102C0000FFF746F90028B2D1FFF7FAF9224B412528
:102C1000DE682846FFF72CF94FF4FA711948FEF7E1
:102C20005FF8B0F1FF30414241410720FFF730F932
:102C300000289CD1216808200A1B51425141FFF70E
:102C400027F9002893D1A1680920D1F1010138BFEB
:102C50000021FFF71DF90135EDB2002887D1462D7F
:102C6000D7D10A200D49FFF72BF900287FF47FAF59
:102C70000B2006F6C41106F6C91202B0BDE870407A
:102C8000FFF74EB900080020C8090020B06800080E
:102C90003129000828100020B8090020306B0008F6
:102CA000F0B540F6C813C2F20003DB6946F6B00582
:102CB0009E6846F6243483B0C0F60005C0F60004D2
:102CC00042F6C153721C009428684FF49871C0F604
:102CD0000003FDF705FE41F22804C2F200046F680C
:102CE000206046F62C30C0F6000042F69153B21C2C
:102CF00000904FF49871C0F600033846FDF7F0FDE0
:102D0000AD68606046F62830C0F6000042F65153C8
:102D10004FF49871F21CC0F6000300902846FDF7AE
:102D2000DFFD40F62C05C2F20005A0602846FEF744
:102D30007FF92846FEF77CF9FFF71AF946F6B0410D
:102D40000120C0F6000103B0BDE8F040FFF7B8B8BD
:102D500010B5044640F61C00C2F20000FEF7B8F8B9
:102D60002078FFF785F8FEF7DBF8002010BD00BFE4
:102D700010B5044640F60C00C2F20000FEF7A8F8B9
:102D80002078FFF775F8FEF7CBF8002010BD00BFE4
:102D900010B5044640F60C00C2F20000FEF798F8A9
:102DA00040F62C00C2F20000FEF7BAF92078FFF7D7
:102DB0005FF8FEF7B5F8002010BD00BF000000006E
:102DC00010B5044640F61C00C2F20000FEF780F881
:102DD00040F60C00C2F20000FEF77AF840F62C0034
:102DE0004FF0FF31C2F20000FEF7D2F92078FFF772
:102DF0003FF8FEF795F8FEF793F8002010BD00BFEE
:102E000040F62C0008B5C2F20000FEF709F940F6C2
:102E10000C00C2F20000FDF7EBFF40F61C00C2F20E
:102E20000000BDE80840FDF7E3BF00BF0000000060
:102E300040F62C0008B5C2F20000FEF7F1F840F6AB
:102E40000C00C2F20000BDE80840FDF7D1BF00BF92
:102E500040F62C0008B5C2F20000FEF7E1F840F69B
:102E60000C00C2F20000BDE80840FDF7C1BF00BF82
:102E700040F60C00C2F20000FDF7BABF00000000EF
:102E800040F60C0008B5C2F20000FDF7B1FF40F6B5
:102E90001C00C2F20000BDE80840FDF7A9BF00BF5A
:102EA00040F60C0008B5C2F20000FDF7A1FF40F6A5
:102EB0001C00C2F20000BDE80840FDF799BF00BF4A
:102EC00040F60C00C2F20000FDF792BF00000000C7
:102ED00040F60C00C2F20000FDF78ABF00000000BF
:102EE000F0B540F6C813C2F20003DB6946F6B0063F
:102EF0009F6842F6915546F6343483B0C0F600051B
:102F0000C0F60006C0F600047A1C2B460094306818
:102F10004FF49871FDF7E4FC41F22804C2F200047A
:102F2000206046F62030C0F60000BA1C2B46009008
:102F30004FF498717068FDF7D3FC606046F62C3052
:102F4000C0F60000FA1C2B4600904FF49871B06850
:102F5000FDF7C6FCA06046F62830C0F600003A1D1A
:102F60002B4600904FF49871F068FDF7B9FC366974
:102F7000E06046F62430C0F600004FF498717A1DE8
:102F80002B4600903046FDF7ABFC206140F62C004C
:102F9000C2F20000FEF78CF8FEF7EAFF46F6303189
:102FA0000120C0F6000103B0BDE8F040FEF788BF85
:102FB000F0B540F6C813C2F20003DB6946F6B0066E
:102FC0009F6842F6915546F6343183B0C0F600064C
:102FD000C0F60005C0F600017A1C2B46009130684F
:102FE0004FF49871FDF77CFC41F22804C2F2000412
:102FF0007168206046F62030C0F60000BA1C2B46EF
:10300000009008464FF49871FDF76AFCB168606063
:1030100046F62C30C0F60000FA1C2B4600900846FD
:103020004FF49871FDF75CFCF168A06046F628301B
:10303000C0F600003A1D2B46009008464FF49871E8
:10304000FDF74EFC326946F62431C0F60001E0601F
:103050002B46009110464FF498717A1DFDF740FC05
:103060002023206183F3118840F62C04C2F200046F
:103070002046FDF7F5FF2046FDF7F2FF2046FDF75D
:10308000EFFF2046FDF7ECFF2046FDF7E9FFFDF7D7
:10309000B7FB002383F31188FEF76AFF46F6303151
:1030A0000120C0F6000103B0BDE8F040FEF708BF04
:1030B000F0B52C4F2C4EFB692C4D9C6885B02C48EC
:1030C000FDF706FF621C30684FF49871294B00959C
:1030D000FDF706FC284D7368286028480393A21C5E
:1030E0004FF49871234B00900398FDF7F9FBB368F8
:1030F000686023480393E21C4FF498711D4B0090C5
:103100000398FDF7EDFBF368A8601E480393221DAA
:103110004FF49871174B00900398FDF7E1FB366967
:10312000E86019484FF49871621D124B00903046C8
:10313000FDF7D6FB2861FDF7F3FEFEF719FFFB69EB
:10314000012099680B1B59425941FEF7A1FE08B1B5
:1031500005B0F0BD0D49022005B0BDE8F040FEF716
:10316000AFBE00BFC8090020B0680008346B00087B
:103170000C080020712D000828100020206B00088A
:103180002C6B0008286B0008246B0008306B0008CB
:10319000F8B52E4D2E4CEB6920469E68FDF7A8FE33
:1031A00001460120FEF774FE00B1F8BD2046FDF790
:1031B0009FFED0F1010138BF00210220FEF768FE1A
:1031C00007460028F1D1202383F31188FDF7D8FEAC
:1031D0003B4683F3118821680320B1EB040CDCF13A
:1031E000000151EB0C01FEF753FE0028DDD1A16870
:1031F0000420D1F1010138BF0021FEF749FE00286B
:10320000D3D1EB6905209968B1EB060EDEF1000120
:1032100051EB0E01FEF73CFE0028C6D12046FDF71B
:1032200057FEFDF7D5FE216806200A1B5142514189
:10323000FEF72EFE0028B8D1A1680720D1F10101C8
:1032400038BF0021BDE8F840FEF722BEC8090020C3
:103250000C0800200000000000000000000000003A
:103260002DE9F0468A4D8B4EEB6932689C6885B03B
:103270008948039204F101094FF498714A46874B3B
:1032800000900398FDF72CFB854F766838608548E1
:1032900004F1020A4FF498715246834B0090304675
:1032A000FDF71EFB78608148FDF712FEEB690120F7
:1032B00099680A1B51425141FEF7EAFD10B105B071
:1032C000BDE8F0866420FDF75BFBEB69022099689E
:1032D000B1EB090359425941FEF7DAFD0028EED15E
:1032E0007348FDF7F5FDEB6903209968B1EB090C14
:1032F000DCF1000151EB0C01FEF7CAFD0028DED124
:103300006420FDF73DFBEB6904209968B1EB0A0EE0
:10331000DEF1000151EB0E01FEF7BAFD0028CED11F
:10332000FDF7FEFDEB6905209968B1EB09025142FA
:103330005141FEF7ADFD0028C1D16420FDF720FB0F
:10334000EB6906209968B1EB090359425941FEF730
:103350009FFD0028B3D1FDF73BFEEB69072099687C
:10336000B1EB040CDCF1000151EB0C01FEF790FD18
:103370000028A4D1FEF7FCFD4E484FF498714A4650
:10338000464B00900398FDF7ABFA38604A484FF47B
:103390009871454B524600903046FDF7A1FA78608F
:1033A0004248FDF795FDEB6908209968B1EB040EE2
:1033B000DEF1000151EB0E01FEF76AFD00287FF4FB
:1033C0007EAF6420FDF7DCFAEB6909209968B1EB68
:1033D000090251425141FEF75BFD00287FF46FAFB7
:1033E0003348FDF775FDEB690A209968B1EB0903D5
:1033F00059425941FEF74CFD00287FF460AF64202C
:10340000FDF7BEFAEB690B209968B1EB0A0CDCF111
:10341000000151EB0C01FEF73BFD064600287FF44E
:103420004EAF202383F31188FDF7AAFD334683F3C3
:103430001188EB690C209968B1EB090EDEF10001EF
:1034400051EB0E01FEF724FD00287FF438AF642015
:10345000FDF796FAEB690D209968B1EB090251422C
:103460005141FEF715FD00287FF429AFFDF7B0FDAF
:10347000EB690E2099680B1B59425941FEF708FD74
:1034800000287FF41CAF05B0BDE8F046FEF770BD24
:10349000C8090020B0680008286B0008E134000863
:1034A00028100020246B0008C13400081C080020EC
:1034B0000C080020206B00082C6B000800000000A6
:1034C00008B59620FDF75CFA40F60C00C2F2000049
:1034D000FDF7FEFCFDF724FD002008BD0000000004
:1034E00008B53220FDF74CFA40F61C00C2F200008D
:1034F000FDF7EEFCFDF714FD002008BD0000000004
:103500002DE9F041304E84B0FEF77AFDF369DFF823
:10351000DC809A6800252D4C4FF49871053A2C4BAD
:103520000095D8F80000E768FDF7DAF9F369294C4F
:103530009A68D8F80430206003934FF49871043AE5
:10354000254B00950398FDF7CBF9F369D8F80820CF
:103550004FF4987103929A686060033A1F4B00958C
:103560000398FDF7BDF9F369D8F80C204FF4987172
:1035700003929A68A060023A194B00950398FDF7F0
:10358000AFF9F369D8F810609A684FF49871E06069
:10359000013A144B00953046FDF7A2F92061FEF781
:1035A000E7FC01201049FEF78BFC10B104B0BDE828
:1035B000F081022007F16E0107F1730204B0BDE84B
:1035C000F041FEF7ADBC00BFC8090020B8090020DB
:1035D000713700082810002021370008F136000854
:1035E000D1360008A1360008306B0008B06800082A
:1035F0002DE9F041224E84B0FEF702FDF369DFF8B9
:103600009C809A6800251F4C4FF49871013A1E4B1C
:103610000095D8F80000E768FDF762F9F3691B4CE4
:103620009A68D8F80430206003934FF49871023AF6
:10363000174B00950398FDF753F9F369D8F8086024
:103640009A684FF498716060033A124B00953046C7
:10365000FDF746F9A060FEF78BFC01200E49FEF74E
:103660002FFC10B104B0BDE8F081022007F1640125
:1036700007F1690204B0BDE8F041FEF751BC00BF9C
:10368000C8090020B8090020F137000828100020E0
:10369000D1370008A1370008B06C0008B0680008F6
:1036A00008B53220FDF76CF940F61C00C2F20000AC
:1036B000FDF70EFC0A20FEF773FCFDF731FC4120FC
:1036C000FEF7D6FB002008BD00000000000000004F
:1036D00008B52820FDF754F91420FEF761FC4220BC
:1036E000FEF7C6FB002008BD00000000000000003F
:1036F00008B51420FDF744F940F61C00C2F20000A2
:10370000FDF7E6FB0A20FEF74BFCFDF709FC432022
:10371000FEF7AEFB002008BD000000000000000026
:1037200008B50A20FDF72CF940F61C00C2F2000093
:10373000FDF7CEFB1420FEF733FC40F60C00C2F27E
:103740000000FDF7C5FB0A20FEF72AFCFDF7E8FBA9
:103750000A20FEF725FCFDF7E3FB4420FEF788FB7B
:10376000002008BD00000000000000000000000074
:1037700040F60C0008B5C2F20000FDF7A9FB1E20C0
:10378000FEF70EFCFDF7CCFB4520FEF771FB002099
:1037900008BD00BF000000000000000000000000A5
:1037A00040F60C0008B5C2F20000FDF791FB28209E
:1037B000FEF7F6FBFDF7B4FB0A20FEF7F1FB432012
:1037C000FEF756FB002008BD0000000000000000CE
:1037D00008B51420FDF7D4F82820FEF7E1FB4220BD
:1037E000FEF746FB002008BD0000000000000000BE
:1037F00008B52820FDF7C4F840F60C00C2F200001E
:10380000FDF766FB0A20FEF7CBFBFDF789FB4120A5
:10381000FEF72EFB002008BD0000000000000000A5
:1038200010B540F6C813C2F20003DC6946F6B003D7
:10383000A268C0F6000382B0186843F6B1030132F3
:103840004FF498710094C0F60003FDF749F841F277
:103850002803C2F200031860FDF762FE446B2146A4
:10386000FDF77EFEE0B2FEF703FBFDF759FE446B69
:103870002146FDF775FEE0B2FEF7FAFAFDF750FEBD
:10388000446B2146FDF76CFEE0B2FEF7F1FA46F616
:10389000B0410120C0F6000102B0BDE81040FEF7C3
:1038A0000FBB00BF0000000000000000000000008F
:1038B00010B541210446FDF713FE42212046FDF7D5
:1038C0000FFE20464321FDF70BFE002010BD00BF78
:1038D000F0B5B44E0120716A83B04B1F5942594173
:1038E000FEF7D6FA00BB4224AE4D214628464FF0E3
:1038F000FF32FDF79DFED0F1010138BF002102200B
:103900000134FEF7C5FA78B9462CEDD1412128469D
:103910004FF0FF32FDF7D4FED0F1010138BF002196
:103920000320FEF7B5FA08B103B0F0BD582101221B
:103930002846FDF77DFEB0F1FF3CDCF1000151EBC4
:103940000C010420FEF7A4FA04460028ECD1202341
:1039500083F3118858212846FDF77AFE2346014655
:1039600083F311880520B1F1FF3EDEF1000151EB38
:103970000E01FEF78DFA0028D6D1582101222846E3
:10398000FDF79EFEB0F1FF32514251410620FEF795
:103990007FFA04460028C7D1202383F311885821D9
:1039A0002846FDF79DFE2346014683F31188072034
:1039B000B1F1FF3359425941FEF76AFA0746002830
:1039C000B2D1202383F31188696A0820D1F1010163
:1039D00038BF0021FEF75CFA044618B13B4683F37A
:1039E0001188A1E7034683F31188202383F311880C
:1039F000A9690920B1F1050CDCF1000151EB0C01C2
:103A0000FEF746FA034618B1234683F311888BE785
:103A100083F31188202383F31188E968AB680A20B7
:103A2000B1EB030EDEF1000151EB0E01FEF730FAAF
:103A3000002383F3118800287FF476AF052505E085
:103A40009DF80400FEF714FA013D10D0554C01A971
:103A50004FF0FF322046FDF77BFED0F1010138BF69
:103A600000210B20FEF714FA0028E9D05CE70C20B7
:103A70004D49FEF725FA00287FF456AF472120462E
:103A80004FF0FF32FDF7D4FDD0F1010138BF002126
:103A90000D20FEF7FDF900287FF446AF01A920466E
:103AA0004FF0FF32FDF754FED0F1010138BF002185
:103AB0000E20FEF7EDF900287FF436AF2168A368E9
:103AC0000F20CA1A51425141FEF7E2F900287FF453
:103AD0002BAF2168E3681020CB1A59425941FEF7F9
:103AE000D7F900287FF420AF01A901222046FDF775
:103AF0002FFEB0F1FF3CDCF1000151EB0C01112075
:103B0000FEF7C6F900287FF40FAF202383F3118856
:103B100001A92046FDF72CFE2B46014683F31188B0
:103B20001220B1F1FF3EDEF1000151EB0E01FEF774
:103B3000AFF900287FF4F8AE202383F31188616A7F
:103B400013204A1F51425141FEF7A2F9002383F38B
:103B5000118800287FF4E8AE202383F31188B1692F
:103B60001420D1F1010138BF0021FEF791F90D4C6D
:103B7000054618B1002383F31188D5E6034683F385
:103B80001188202383F31188E168A3681520CB1ADC
:103B900059425941FEF77CF9034638B12B4683F36D
:103BA0001188C1E634080020306B000883F31188C7
:103BB000202383F3118841212046FDF749FDD0F1F0
:103BC000010138BF00211620FEF762F900287FF4BA
:103BD000ABAE42212046FDF73BFDD0F1010138BFDD
:103BE00000211720FEF754F900287FF49DAE4321F1
:103BF0002046FDF72DFDD0F1010138BF002118202E
:103C0000FEF746F900287FF48FAE44212046FDF7E9
:103C10001FFDD0F1010138BF00211920FEF738F94E
:103C2000054600287FF480AE45212046FDF710FDB3
:103C30002B46014683F311881A20D1F1010138BFC8
:103C40000021FEF725F900287FF46EAEE168A36835
:103C50001B20B1EB030CDCF1000151EB0C01FEF772
:103C600017F900287FF460AE0525202383F311881F
:103C7000A04C01A92046FDF77BFD0023014683F3FC
:103C800011881C20B1EB030EDEF1000151EB0E0197
:103C9000FEF7FEF800287FF447AE9DF80400FEF71B
:103CA000E7F8013DE1D11D209349FEF709F900280D
:103CB0007FF43AAE202383F31188616A1E204A1FE5
:103CC00051425141FEF7E4F82B4683F31188002856
:103CD0007FF42AAE202383F31188A1691F20D1F13C
:103CE000010138BF0021FEF7D3F82B4683F311887A
:103CF00000287FF419AEE168A3682020CB1A59424E
:103D00005941FEF7C5F800287FF40EAE202383F357
:103D1000118845212046FDF7E3FCD0F1010138BFB1
:103D200000212120FEF7B4F800287FF4FDAD4421E6
:103D30002046FDF7D5FCD0F1010138BF002122203B
:103D4000FEF7A6F800287FF4EFAD43212046FDF7EB
:103D5000C7FCD0F1010138BF00212320FEF798F8FD
:103D600000287FF4E1AD42212046FDF7B9FCD0F1F7
:103D7000010138BF00212420FEF78AF800287FF4D3
:103D8000D3AD5C4C41212046FDF7AAFC002301463F
:103D900083F311882520B1EB030CDCF1000151EB1A
:103DA0000C01FEF775F800287FF4BEADE168A3684A
:103DB0002620B1EB030EDEF1000151EB0E01FEF700
:103DC00067F800287FF4B0AD0524202383F3118821
:103DD000484D01A92846FDF7CBFC0023014683F39B
:103DE00011882720CA1A51425141FEF751F8002884
:103DF0007FF49AAD9DF80400FEF73AF8013CE4D157
:103E000028203D49FEF75CF800287FF48DAD202383
:103E100083F31188696A29204B1F59425941FEF7E3
:103E200037F8234683F3118800287FF47DAD2023E3
:103E300083F31188A9692A20D1F1010138BF00213B
:103E4000FEF726F8234683F3118800287FF46CAD33
:103E5000E968AB682B20B1EB030CDCF1000151EBFE
:103E60000C01FEF715F800287FF45EAD2846FDF73B
:103E70009FFB202383F31188696A2C20B1F1050E82
:103E8000DEF1000151EB0E01FEF702F8234683F349
:103E9000118800287FF448AD202383F31188A96995
:103EA0002D20D1F1010138BF0021FDF7F1FF23469C
:103EB00083F3118800287FF437AD202383F3118822
:103EC0002968AB682E20CA1A51425141FDF7E0FF24
:103ED000234683F3118800287FF426AD202383F343
:103EE00011882968EB682F20CB1A59425941FDF7F8
:103EF000CFFF3FE634080020306B000800000000D0
:103F000040F6340040F61021C2F20000C2F2000177
:103F10000522FDF735BB00BF0000000000000000D7
:103F20004FF0FF30FDF774B9000000000000000002
:103F30004FF0FF30FDF76CB90000000000000000FA
:103F40004FF0FF30FDF764B90000000000000000F2
:103F50002DE9F04205208AB0FDF772F94FF0FF30ED
:103F6000FDF7DEF90138414241410120FDF790FFA4
:103F700010B10AB0BDE8F0824FF0FF30FDF7D0F984
:103F8000021F514251410220FDF782FF0028F0D16B
:103F90004FF0FF30FDF73CF9D0F1010138BF0021AF
:103FA0000320FDF775FF0028E3D1754DFEF728F8D3
:103FB000744BEC691B68A2680393734F4FF49871BC
:103FC000013A724B00940398FC68FCF789FC704E30
:103FD00030604FF0FF30FDF7A3F904F13201814664
:103FE00004F137020420FDF79BFF0028C1D1052012
:103FF000B9F1010359425941FDF74AFF0028B8D1F0
:104000004FF0FF30FDF704F9D0F1010138BF002176
:104010000620FDF73DFF0028ABD1FDF7A9FF0520E5
:10402000FDF70EF94FF0FF30FDF79AF9B0F1050CEE
:10403000DCF1000151EB0C010720FDF729FF0028FE
:1040400097D14FF0FF30FDF7E3F8D0F1010138BF11
:1040500000210820FDF71CFF00288AD1FDF7D0FFC2
:10406000E8694FF498718268484B013A00900398D0
:10407000FC68FCF735FC30604FF0FF30FDF770F95D
:1040800004F13201814604F137020920FDF748FFAF
:1040900000287FF46EAF0A20B9F1010EDEF10001B5
:1040A00051EB0E01FDF7F4FE00287FF462AF4FF0F4
:1040B000FF30FDF7ADF8D0F1010138BF00210B2032
:1040C000FDF7E6FE00287FF454AFDFF8D490314CC2
:1040D000FDF74EFF484604A90122C9F8009024606C
:1040E000FDF766F807A904222046FDF761F8FDF701
:1040F00087FFEB6928489A684FF49871013A00905D
:10410000264B0398FD68FCF7EBFB30600520FDF7BC
:1041100047F90C2005F1320105F13702FDF700FFE8
:1041200000287FF426AF4FF0FF30FDF771F8D0F193
:10413000010138BF00210D20FDF7AAFE00287FF401
:1041400018AFFDF715FF484604A9FDF749F82046CA
:1041500007A9FDF745F8D9F800100E20B1EB0902C8
:1041600051425141FDF794FE00287FF402AF2168CF
:104170000F200B1B59425941FDF78AFEF9E600BF9B
:10418000C8090020B0680008B8090020E141000813
:104190002810002060080020246B0008B1410008AE
:1041A0005C0800200000000000000000000000008B
:1041B00040F65C0008B50021C2F20000FDF788F867
:1041C0003220FCF7DDFB40F66000C2F20000002167
:1041D000FDF77EF8002008BD000000000000000090
:1041E00010B504463220FCF7CBFB20460121FDF739
:1041F0004FF8002010BD00BF0000000000000000CC
:1042000010B51E4C86B00122204669462460FCF79A
:10421000CFFF204603A90222FCF7CAFF2168012034
:10422000091B18BF0121FDF733FE08B106B010BD10
:1042300020466946FCF7D4FF21680220091B18BFFD
:104240000121FDF725FE0028F0D1204603A9FCF747
:10425000C7FF21680320B1EB040EDEF1000151EB32
:104260000E01FDF715FE0028E0D107210448FDF7F7
:104270003FF804200349FDF723FED7E75C08002040
:10428000106F0008B06C0008000000000000000083
:104290004320FDF7EDBD00BF00000000000000005E
:1042A0004220FDF7E5BD00BF000000000000000057
:1042B0004120FDF7DDBD00BF000000000000000050
:1042C00008B500214FF0FF30FDF78AF8D0F1010169
:1042D00038BF00210120FDF7DBFD00B108BD01461C
:1042E0004FF0FF30FDF7A4F8D0F1010138BF0021F5
:1042F0000220FDF7CDFD0028F0D101464FF0FF3040
:10430000FDF7BEF8D0F1010138BF00210320FDF711
:10431000BFFD0028E2D10A214FF0FF30FDF760F821
:10432000D0F1010138BF00210420FDF7B1FD0028C4
:10433000D4D10A214FF0FF30FDF77AF8D0F1010116
:1043400038BF00210520FDF7A3FD0028C6D10A21B2
:104350004FF0FF30FDF794F8D0F1010138BF002194
:104360000620BDE80840FDF793BD00BF0000000037
:1043700070B582B0FDF7D4FB01A90020FDF790FCD9
:1043800010210020FDF7FCFB011C18BF0121044691
:104390000120FDF77DFD054608B102B070BD204645
:1043A000FDF736FC6FF0FF012846FDF7E9FBD0F181
:1043B000010138BF00210220FDF76AFD0028ECD181
:1043C00001A97C48FDF76CFC10217A48FDF7D8FB69
:1043D000102105467748FDF7D3FB102104467548A8
:1043E000FDF7CEFB06462846FDF712FC2046FDF7FA
:1043F0000FFC3046FDF70CFC69466E48FDF750FC9B
:10440000B0F1010EDEF1000151EB0E010320FDF7CA
:104410003FFD0028C1D110216648FDF7B1FB1021F6
:1044200004466448FDF7ACFB102105466148FDF7E2
:10443000A7FBFDF7EDFB2846FDF7EAFB2046FDF75D
:10444000E7FB69465B48FDF72BFC013841424141DF
:104450000420FDF71DFD00289FD111215548FDF7CF
:104460008FFB102104465348FDF78AFB0546204682
:10447000FDF7CEFB69464F48FDF712FC821E514204
:1044800051410520FDF704FD002886D1102149483F
:10449000FDF776FB694604464648FDF701FC012816
:1044A00008BF014606D069464248FDF7F9FB831E66
:1044B000594259410620FDF7EBFC00287FF46DAF0F
:1044C0002846FDF7A5FB2046FDF7A2FB69463948C3
:1044D000FDF7E6FBB0F1010CDCF1000151EB0C0142
:1044E0000720FDF7D5FC00287FF457AF1021314895
:1044F000FDF746FB102105462E48FDF741FB04461B
:104500002846FDF785FB69462A48FDF7C9FBB0F14F
:10451000020EDEF1000151EB0E010820FDF7B8FCA0
:1045200000287FF43AAF20212248FDF729FBFDF750
:104530006FFB2046FDF76CFB69461E48FDF7B0FB9C
:104540000138414241410920FDF7A2FC00287FF4D7
:1045500024AF69461748FDF7A3FB00991548FDF7FE
:104560000FFB694604461348FDF79AFBD0F10101A1
:1045700038BF00210A20FDF78BFC00287FF40DAF27
:104580002046FDF745FB69460A48FDF789FB421EB8
:10459000514251410B20FDF77BFC00287FF4FDAE1A
:1045A0009DE80A000C20CB1A59425941FDF770FCD6
:1045B000F3E600BF501000200000000000000000E3
:1045C00041F2500040F61021C2F20000C2F2000198
:1045D0004FF4BE62FDF7C4BA000000000000000006
:1045E00000207047000000000000000000000000F4
:1045F00040F66400C2F200004FF498710022FDF70B
:104600006FBB00BF000000000000000000000000C1
:1046100038B51A4C04F1140554F8041F1848FDF776
:104620007FFBAC42F8D105241548FDF761FB011C66
:1046300018BF01210120FDF72BFC60B9013CF3D12B
:104640000F48FDF755FBD0F1010138BF00210220D2
:10465000FDF71EFC00B138BD10210A4A0848FDF7DD
:104660003FFB0748FDF744FBD0F1010138BF0021B3
:104670000320BDE83840FDF70BBC00BFAC68000864
:1046800064080020E1450008000000000000000070
:1046900038B50546FCF77CFA002403461846AB42C1
:1046A00008BF44F00104FCF783FA03460028F5D163
:1046B000204638BD0000000000000000000000009F
:1046C00010B54A4B82B0DB694FF498719A68484B39
:1046D000013A00934748484BFCF712FA817F0446A1
:1046E0000120B1EB000CDCF1000151EB0C01FDF7F6
:1046F000CFFB08B102B010BD2046FCF7C9F9A17F7D
:104700000220B1EB000EDEF1000151EB0E01FDF7CE
:10471000BFFB0028EED12046FCF7CAF9A17F032099
:104720004A1E51425141FDF7B3FB0028E2D1204619
:10473000FFF7AEFF01460420FDF7AAFB0028D9D100
:104740002046FFF7A5FF01460520FDF7A1FB002845
:10475000D0D12046FCF7ACF9A17F0620D1F10101B0
:1047600038BF0021FDF794FB0028C3D1217F07202B
:10477000D1F1010138BF0021FDF78AFB0028B9D132
:104780002046FFF785FF01460820FDF781FB002842
:10479000B0D12046FFF77CFF01460920FDF778FBEA
:1047A0000028A7D13220FCF7EBF8217F0A20B1F1D5
:1047B0000E0359425941FDF76BFB00289AD1204660
:1047C000FFF766FF01460B20FDF762FB002891D141
:1047D0002046FFF75DFFD0F1010138BF00210C201A
:1047E00002B0BDE81040FDF753BB00BFC809002070
:1047F000246B000880100020014800080000000021
:1048000008B50078FDF734FB002008BD000000006B
:1048100041F2800040F61021C2F20000C2F2000115
:104820004FF4BE62FDF79CB90000000000000000DC
:1048300041F2800040F61021C2F20000C2F20001F5
:104840004FF4BE62FDF78CB90000000000000000CC
:10485000324B70B5DB69324C9D6804F1100654F898
:10486000041F3048FDF75CFAB442F8D1691E2E4AA5
:104870002E4B2C48FCF764F92D4CA91E20602A4AC7
:104880002C4B2848FCF75CF9E91E6060264A2A4B4D
:104890002448FCF755F9291FA060234A274B2148DB
:1048A000FCF74EF9691FE0601F4A1E48244BFCF7D5
:1048B00047F92168206149B1616839B1A16829B11E
:1048C000E16819B1D0F1010138BF00210120FDF7E5
:1048D000DFFA00B170BDFDF74BFB02201949FDF76F
:1048E000EFFA0028F6D104240E48FDF701FA011C66
:1048F00018BF01210320FDF7CBFA0028EAD1013CC3
:10490000F2D10848FDF7F4F9D0F1010138BF0021D8
:104910000420BDE87040FDF7BBBA00BFC809002005
:10492000AC6800087010002001480008246B0008E3
:1049300028100020286B00082C6B0008206B000852
:10494000346B0008F06F0008000000000000000059
:1049500041F27000C2F200004FF498710022FDF79E
:10496000BFB900BF00000000000000000000000010
:1049700070B5334B84B0DB6903A932489D68FDF7FD
:104980008FF931484FF498716A1E304B00902D48D2
:10499000FCF7B6F82E4CAA1E20602E482B4B4FF485
:1049A000987100902748FCF7ABF802A96060254891
:1049B000FDF776F902992348FDF7E2F80646264806
:1049C0004FF49871EA1E214B00901E48FCF798F8AE
:1049D000A0603046FDF71CF9216829B1616819B162
:1049E000A168002923D000210120FDF751FA08B168
:1049F00004B070BDFDF7BCFA02201849FDF760FA5B
:104A00000028F5D102A90F48FDF74AF9421E51428C
:104A100051410320FDF73CFA0028E9D10299039B9C
:104A20000420CB1A59425941FDF732FAE0E7E36816
:104A3000002BD9D12169D1F1010138BF0021D3E781
:104A4000C809002080100020246B000801480008DD
:104A500028100020286B00082C6B0008F86F000855
:104A6000704700BF000000000000000000000000D0
:104A700040F6700008B50021C822C2F20000FCF721
:104A800087FF002008BD00BF0000000000000000FC
:104A900046F6B003C0F60003196840F6700044F60D
:104AA0006123C2F200000422C0F60003FCF748BFF5
:104AB00040F6900008B5C821C2F20000FCF7D8FE0D
:104AC000002008BD00000000000000000000000001
:104AD00046F6B003C0F60003196840F6900044F6AD
:104AE0006123C2F200000422C0F60003FCF770BE8E
:104AF0002DE9F041202382B083F31188904B59694E
:104B00009A69914263D000210120FDF7C1F9002884
:104B10003AD1034683F311884124894D214601345B
:104B200028464FF0FF32E4B2FCF732FF452CF4D1B7
:104B3000202383F31188A9680220D1F1010138BF35
:104B40000021FDF7A5F9F8B9034683F31188042481
:104B5000202383F311887A4D2846FCF741FF002378
:104B600083F31188C0B2FDF783F9013CF0D1202313
:104B700083F311886A69AB699A4218BF21462BD02A
:104B80000320FDF785F928B1002383F3118802B0D3
:104B9000BDE8F081034683F3118804206949FDF7DD
:104BA0008FF904460028F2D1202383F31188644D45
:104BB0002846FCF715FF033014BF00210121052012
:104BC000FDF766F968B1234683F31188DFE799683A
:104BD000003118BF012197E7A968003118BF0121F2
:104BE000CEE7034683F31188574E0822746828469F
:104BF0002146FCF71DFF031F594259410620FDF7CE
:104C000047F907460028C2D1202383F31188A968F9
:104C10000720D1F1010138BF0021FDF739F98046A5
:104C200018B13B4683F31188B1E7034683F311883B
:104C3000464B3068DB694FF498719A68CDF8008074
:104C40000132434BFBF74CFE424A2023106083F3B2
:104C500011882969EA68AB688A1AD11A0820B1F16B
:104C6000040CDCF1000151EB0C01FDF711F90646D3
:104C700018B1434683F3118889E7034683F311880B
:104C8000FDF776F9202383F311882846FCF768FEA8
:104C9000334683F31188202383F311882969EA6856
:104CA000AB68891A0920B1EB030EDEF1000151EB6C
:104CB0000E01FDF7EDF8034618B1334683F3118872
:104CC00065E783F31188022221462846FCF7B0FEEF
:104CD0000238414241410A20FDF7DAF80346002834
:104CE0007FF455AF214602222846FCF7A1FE821E22
:104CF000514251410B20FDF7CBF800287FF447AF1C
:104D0000202383F31188A9680C20D1F1010138BF59
:104D10000021FDF7BDF8002383F3118800287FF4FC
:104D200036AF19460A220648FCF732FEB0F1FF33CF
:104D3000594259410D2002B0BDE8F041FDF7A8B835
:104D400070080020F06F0008B0680008C809002053
:104D5000714A000828100020000000000000000038
:104D6000F0B5202383B083F31188A24C0120A16801
:104D7000D1F1010138BF0021FDF78AF8054638BBA3
:104D8000034683F31188202383F3118841212046B1
:104D9000FCF746FD42212046FCF742FD4321204618
:104DA000FCF73EFD20464421FCF73AFD2B4683F3F9
:104DB0001188202383F311886269A3699A4218BF7E
:104DC000294600F012810220FDF762F8044620B166
:104DD000002383F3118803B0F0BD034683F31188E9
:104DE000202383F3118883482146FCF719FD043002
:104DF00014BF002101210320FDF74AF8002840F0EC
:104E0000F080034683F3118804247A4D4FF0FF317C
:104E10002846FCF72DFDC0B2FDF72AF8013CF4D17D
:104E2000202383F31188A9680420D1F1010138BF40
:104E30000021FDF72DF8234683F311880028CAD1FD
:104E400005206D49FDF73CF80028C4D1202383F3E9
:104E5000118841212846FCF7E3FC42212846FCF753
:104E6000DFFC43212846FCF7DBFC28464421FCF705
:104E7000D7FC234683F31188604F08227E682846BA
:104E80003146FCF71DFDB0F1040CDCF1000151EBE3
:104E90000C010620FCF7FCFF00289CD1202383F3A3
:104EA0001188A9680720D1F1010138BF0021FCF762
:104EB000EFFF234683F3118800288CD1202383F34E
:104EC000118841212846FCF7ABFC42212846FCF71B
:104ED000A7FC43212846FCF7A3FC28464421FCF705
:104EE0009FFC234683F31188022231462846FCF7B3
:104EF000E7FCB0F1020EDEF1000151EB0E010820DB
:104F0000FCF7C6FF00287FF466AF31460222284630
:104F10002346FCF7D5FC0238414241410920FCF709
:104F2000B7FF00287FF457AF202383F31188A968C7
:104F30000A20D1F1010138BF0021FCF7A9FF234667
:104F400083F3118800287FF446AF202383F3118870
:104F500021462846FCF764FC2846FCF749FC23461A
:104F600083F31188202383F31188A9680B20D1F1E2
:104F7000010138BF0021FCF78BFF234683F3118822
:104F800000287FF428AF1E4A3868D2694FF4987120
:104F900092681C4B01320094FBF7A2FC1A4A2023B2
:104FA000106083F31188A9680C20D1F1010138BF8A
:104FB0000021FCF76DFF002383F3118800287FF4A4
:104FC0000AAFFCF7D5FF0A210A48FCF751FCB0F103
:104FD000FF32514251410D2003B0BDE8F040FCF7D3
:104FE00057BF234683F31188F5E6A168003118BF47
:104FF0000121E8E690080020F06F0008B068000882
:10500000C8090020B14A0008281000200000000054
:10501000704700BF0000000000000000000000001A
:10502000704700BF0000000000000000000000000A
:1050300047F2501010B5C0F6000047F26014C0F6F9
:105040000004FCF7DDFE4FF4CC70FCF7A1FE204617
:10505000FCF7EEFE47F26810C0F60000FCF7D0FE49
:105060004820FCF795FE2046FCF7E2FE47F2781058
:10507000C0F60000FCF7C4FE1420FCF789FE2046B1
:10508000FCF7D6FE47F28810C0F60000FCF7B8FE29
:105090000C20FCF77DFE2046FCF7CAFE47F2981074
:1050A000C0F60000FCF7ACFE0420FCF771FE2046C1
:1050B000FCF7BEFE47F2A810C0F60000FCF7A0FE09
:1050C0000C20FCF765FE2046FCF7B2FE47F2B81054
:1050D000C0F60000FCF794FE1020FCF759FE2046B5
:1050E000FCF7A6FE47F2C810C0F60000FCF788FEE9
:1050F0000820FCF74DFE2046FCF79AFE47F2D81038
:10510000C0F60000FCF77CFE2020FCF741FE2046A4
:10511000FCF78EFE47F2E810C0F60000FCF770FEC8
:105120002820FCF735FE2046BDE81040FCF780BE85
:1051300038B5FCF765FF4FF47A70FCF771FF124D3C
:1051400000241248FBF7C4FEFBF7EAFE0F48FBF70A
:10515000BFFEFBF7E5FE0D48FBF7BAFEFBF7E0FEEE
:105160000A48FBF7B5FEFBF7DBFE2B680134002B8A
:10517000E7D00748FCF744FEA000FCF709FE05480D
:10518000BDE83840FCF754BE08100020D8100020BD
:10519000F87100080872000800000000000000001C
:1051A00041F2D800C2F20000FBF722BE000000006E
:1051B00010B5074C02E00748FBF762FDE3695B7F2F
:1051C00003F00403DBB2002BF5D0002010BD00BFBC
:1051D000C8090020081100200000000000000000A5
:1051E00038B5FCF70DFF4FF47A70FCF719FF144D3A
:1051F00000241448FBF744FD1248FBF781FD1148D9
:10520000FBF73EFD0F48FBF77BFD0E48FBF738FD33
:105210000C48FBF775FD0B48FBF732FD0948FBF71F
:105220006FFD2B680134002BE3D00748FCF7E8FD45
:10523000A000FCF7ADFD0548BDE83840FCF7F8BD1F
:105240000810002008110020F871000818720008EA
:1052500041F20810C2F200000121FBF7C1BC00BFFF
:1052600041F20810C2F200000021FBF7B9BC00BFF8
:1052700038B5FCF7C5FE4FF47A70FCF7D1FE154D3A
:105280000024202383F31188012100231248134AAC
:10529000FBF78EF9002342F21071104A1048FBF719
:1052A00087F90D48FBF7A4F90D48FBF7A1F9002396
:1052B00083F311882B680134002BE2D00948FCF7F6
:1052C0009FFD6000FCF764FD0748BDE83840FCF72F
:1052D000AFBD00BF08100020C410002021500008FE
:1052E000B0100020F87100082872000800000000CB
:1052F00038B52349102200232248FCF769FAFCF74D
:105300007FFE4FF47A70FCF78BFE1F4D00242023A4
:1053100083F3118800211B48FCF782FA0121194808
:10532000FCF77EFA02211748FCF77AFA03211548A8
:10533000FCF776FA002383F311884FF0FF31114810
:10534000FCF796FA4FF0FF310E48FCF791FA4FF058
:10535000FF310C48FCF78CFA0A484FF0FF31FCF79C
:1053600087FA2B680134002BD1D00848FCF748FDA0
:10537000A000FCF70DFD0648BDE83840FCF758BD1D
:10538000A0100020E810002008100020F87100088C
:10539000347200080000000000000000000000005F
:1053A0002DE9F041144B154ADB6982B09E681768FD
:1053B000FCF726FE4FF47A70FCF732FE0024DFF88B
:1053C0004C80013625460E4B009538464FF49871B7
:1053D0003246FBF785FAD8F800300134002BF2D0C2
:1053E0000848FCF70DFD2046FCF7D2FC064802B049
:1053F000BDE8F041FCF71CBDC8090020B0680008FA
:1054000011500008F87100084072000808100020D0
:105410002DE9F04340F6C81985B004ACC2F200098A
:10542000002344F8043DFCF7EBFDD9F81C3046F6A8
:10543000B0089A6845F20156C0F60008C0F60006AA
:10544000013A3346D8F800004FF498710094FBF706
:1054500047FAD9F81C30D8F804709A6841F2280548
:10546000C2F200052860013A33464FF49871009467
:105470003846FBF735FAD9F81C30D8F808709A6826
:105480004FF498716860013A334600943846FBF750
:1054900027FAD9F81C30D8F80C709A684FF4987134
:1054A000A860013A334600943846FBF719FAD9F858
:1054B0001C30D8F810709A684FF49871013A33464E
:1054C000E86000943846FBF70BFA28614FF47A70D5
:1054D000FBF756FAFCF73CFDFCF74AFD47F2F810E3
:1054E000C0F60000FCF78CFC0398FCF751FC47F277
:1054F0004C20C0F60000FCF79BFC05B0BDE8F08333
:1055000038B50B4D0446FBF763FAFBF761FAFBF77E
:105510005FFAFBF75DFA2268EB69043222605B7F79
:1055200003F00403DBB2002BEDD0002038BD00BF38
:10553000C80900200000000000000000000000007A
:10554000F0B5374F374EFB6985B09A680024306854
:105550004FF498710532344B0094FBF7C1F9FB69A5
:10556000324D9A687368286003934FF4987104323F
:105570002D4B00940398FBF7B3F9FB69B2684FF425
:10558000987103929A6868600332274B00940398DD
:10559000FBF7A6F9FB69F2684FF4987103929A68D9
:1055A000A8600232204B00940398FBF799F9FB693D
:1055B00036699A684FF49871E86001321A4B00948A
:1055C0003046FBF78DF92861FCF71AFD4FF47A702D
:1055D000FCF726FD164D17480021FBF721FB2B6831
:1055E0000134002BF7D0FCF7B3FC00211148FBF786
:1055F00017FBFCF7BDFC1048FCF702FC2046FCF74B
:10560000C7FB0E48FCF7FCFB04EB44004000FCF732
:10561000BFFB0B4805B0BDE8F040FCF709BC00BF7C
:10562000C8090020B0680008B15100082810002007
:105630000810002008110020F871000858720008B6
:105640004C72000800000000000000000000000094
:105650002DE9F041154B164ADB6982B09E68176848
:10566000FCF7CEFC4FF47A70FCF7DAFC0024DFF88C
:105670005080013E25460F4B4FF4987132460095FD
:105680003846FBF72DF9FBF7E3F9D8F80030013481
:10569000002BF0D00848FCF7B3FB2046FCF778FB62
:1056A000064802B0BDE8F041FCF7C2BBC8090020C3
:1056B000B068000811500008F87100084072000836
:1056C00008100020000000000000000000000000A2
:1056D00070B5254B2548DB6982B09A6800254FF4E8
:1056E00098710132224B00950068FBF7F9F8214BC5
:1056F00004461860FCF784FC4FF47A701E4EFCF7E9
:105700008FFC202383F3118800212046FBF728F823
:1057100020460021FBF724F820460021FBF720F863
:1057200020460021FBF71CF8002383F3118833681F
:105730000435002BE5D0202383F311884FF0FF318F
:105740002046FBF70DF8002383F31188FCF710FCCB
:105750000A48FCF755FB6800FCF71AFB084802B042
:10576000BDE87040FCF764BBC8090020B0680008C1
:10577000D15900082810002008100020F8710008F6
:105780004C72000800000000000000000000000053
:1057900070B50546FCF734FC4FF47A70FCF740FC1A
:1057A000074E002428460121FBF79AFE3368013496
:1057B000002BF7D028460021FBF792FE204670BD53
:1057C00008100020000000000000000000000000A1
:1057D0002DE9F04140F6C816C2F20006F36946F61C
:1057E000B0059A6882B00027C0F6000545F6B113EF
:1057F000013228684FF49871C0F600030097FBF758
:105800006FF8F36941F228049A6845F21108C2F270
:105810000004C0F600082060023A43464FF4987135
:1058200000976868FBF75CF8F3694FF498719A6821
:105830006060033A43460097A868FBF751F8F369A4
:105840004FF498719A68A060043A43460097E8685C
:10585000FBF746F8F3692D699A684FF49871053A99
:105860004346E06000972846FBF73AF8206120683D
:10587000FFF78EFF0446FCF77BFB47F2F810C0F6FB
:105880000000FCF7BDFA2046FCF782FA47F26C20D4
:10589000C0F60000FCF7B4FA6000FCF779FA47F2B2
:1058A0004C20C0F6000002B0BDE8F041FCF7C0BAE1
:1058B00010B540F6C813C2F20003DA6946F6B00329
:1058C0009268C0F6000382B00024186845F6B11350
:1058D0004FF4987101320094C0F60003FBF700F812
:1058E00041F22803C2F200031860FFF751FF04469B
:1058F000FCF73EFB47F2F810C0F60000FCF780FA18
:105900002046FCF745FA47F26C20C0F60000FCF791
:1059100077FA6000FCF73CFA47F24C20C0F6000032
:1059200002B0BDE81040FCF783BA00BF00000000E1
:1059300010B540F6C813C2F20003DA6946F6B003A8
:105940009268C0F6000382B00024186845F6B113CF
:105950004FF49871013A0094C0F60003FAF7C0FFC3
:1059600041F22803C2F200031860FFF711FF04465A
:10597000FCF7FEFA47F2F810C0F60000FCF740FA18
:105980002046FCF705FA47F26C20C0F60000FCF751
:1059900037FA6000FCF7FCF947F24C20C0F6000033
:1059A00002B0BDE81040FCF743BA00BF00000000A1
:1059B00010B5FBF7B5FD446B2146FBF7D1FD002C7C
:1059C000F7D1204610BD00BF00000000000000001D
:1059D000084A10B52023D46983F311880220FAF70E
:1059E00087FE636A002BF9D0002383F311881846E1
:1059F00010BD00BFC809002000000000000000002A
:105A000008B500F065FA00F033F947F27050C0F6BF
:105A1000000000F035FE00F00BF800F031F800F067
:105A20008FF800F0F5F8BDE8084000F019BF00BF9E
:105A300000F036BC00000000000000000000000084
:105A400000230122027043608360C36003614361ED
:105A50001830FBF7CDB900BF0000000000000000C7
:105A600010B52023044683F31188416000F038FC10
:105A700002232370002383F3118810BD000000006F
:105A800000F0AEBC000000000000000000000000BC
:105A90000123037000234360704700BF0000000033
:105AA000806BD0F1010038BF00207047000000007B
:105AB0008069D0F1010038BF00207047000000006D
:105AC0000246202383F31188002180680B469160F1
:105AD00083F31188704700BF000000000000000041
